:020000040800F2
:1000000040CC0220C5010008CD010008CB02000849
:10001000D1010008D3010008D5010008000000004C
:10002000000000000000000000000000D7010008F0
:10003000D901000800000000170200086B570008F3
:10004000DF010008DF010008DF010008BD480008EB
:10005000DF010008DF01000831170008DF01000898
:10006000DF010008DF010008DF010008DF010008F0
:10007000DF010008DF010008DF010008DF010008E0
:10008000DF010008DF010008DF010008DF010008D0
:10009000DF010008DF010008DF010008DF010008C0
:1000A000DF010008DF010008DF010008DF010008B0
:1000B0005D580008DF010008DF010008DF010008CB
:1000C000DF010008DF010008DF010008DF01000890
:1000D000DF010008395D0008DF0100087D5D0008D0
:1000E000DF010008DF010008DF010008DF01000870
:1000F000DF010008DF010008DF010008DF01000860
:10010000DF010008DF010008DF010008DF0100084F
:10011000DF010008DF010008DF010008DF0100083F
:10012000DF010008DF010008DF0100087D1600087C
:10013000DF010008DF010008DF010008DF0100081F
:10014000DF010008DF010008DF010008ED450008BD
:10015000DF010008DF010008DF010008DF010008FF
:10016000DF010008DF010008DF010008DF010008EF
:10017000DF010008DF010008DF01000800000000C7
:10018000DF010008DF010008DF010008DF010008CF
:10019000DF010008DF010008DF010008DF010008BF
:1001A000DF010008DF010008DF010008DFF810D0E0
:1001B00000F03CFB0048004785090008AFF30080D1
:1001C00040CC02200648804706480047FEE7FEE78D
:1001D000FEE7FEE7FEE7FEE7FEE7FEE7FEE7FEE7F7
:1001E00009580008AD010008EFF3108072B670479F
:1001F00080F310887047434A1368012B04D04FF0F6
:1002000001031360404A1060404A116040484FF0BB
:10021000805101607047EFF3108272B6394801686F
:1002200051B34FF0000101603748016891B1EFF31D
:1002300009811EF0100F08BF21ED108B21E9F00F8E
:100240004FF000041EF0100F08BF012441F8044DC8
:10025000006801602D490968096808C9B1E8F00F14
:10026000002B18BFB1EC108B81F309884EF0100EF3
:10027000002B18BF2EF0100E82F310884EF0040EE3
:10028000704722490860EFF3148222F0040282F3DF
:1002900014881D494FF0000008601A494FF0010012
:1002A00008601C484FF47F01D0F8002041EA0201A9
:1002B000016017484FF080510160174800680068DE
:1002C00080F3088861B662B670471EF0040F0CBF59
:1002D000EFF30880EFF3098020E9F00F40F804ED18
:1002E00040F804ED1EF0040F0CBF80F3088880F383
:1002F000098800B50FF0B8FE5DF804EB4EF0040E6F
:1003000070470000740200206C0200207002002080
:1003100004ED00E020ED00E008ED00E02DE9F05FE5
:100320000546002092469B46884606468146402464
:100330001BE0284641464746224600F02FF8534628
:100340005A46C01A914110D311461846224600F071
:1003500016F82D1A67EB01084F46224601200021AE
:1003600000F00DF817EB00094E41201EA4F1010426
:10037000DFDC484631462A464346BDE8F09F202A46
:1003800004DB203A00FA02F1002070479140C2F1EC
:10039000200320FA03F3194390407047202A04DB1E
:1003A000203A21FA02F00021704721FA02F3D040EE
:1003B000C2F12002914008431946704710B5431A14
:1003C000934209D28318881803E010F8011D03F83E
:1003D000011D521EF9D210BD40EA01039B0703D054
:1003E00009E008C9121F08C0042AFAD203E011F874
:1003F000013B00F8013B521EF9D210BDD2B201E020
:1004000000F8012B491EFBD270470022F6E710B519
:1004100013460A4604461946FFF7F0FF204610BD72
:10042000421E12F8013F002BFBD111F8013B02F8EC
:10043000013B002BF9D17047421C10F8011B002929
:10044000FBD1801A704710B5002200E0521C835C7B
:100450008C5CA34201D1002BF8D1D8B2E1B2401A92
:1004600010BD30B504460020034600E05B1C9342FB
:1004700003D2E05CCD5C401BF8D030BD034611F8E0
:10048000012B00F8012B002AF9D11846704730B52E
:100490000B46014600202022012409E021FA02F542
:1004A0009D4205D303FA02F5491B04FA02F52844DC
:1004B000151EA2F10102F1DC30BD2DE9FE4F804690
:1004C00081EA0300C00F0C46009021F0004123F0A8
:1004D0000045B8EB0200A94105D2404621469046AE
:1004E0001C460B46024623F00040104347D0270D20
:1004F000C7F30A00C3F30A510290401A0190402842
:100500006BDAC3F3130040F4801B0098924620B1CD
:100510000023D2EB030A63EB0B0B01985946C0F1A1
:1005200040025046FFF72BFF06460D4650465946FF
:10053000019A00F08DF910EB08006141002487EA70
:10054000115284EAE7731A4340D0009A62B3019AC9
:10055000012A4FEA075215DC001B61EB02014FF044
:10056000004202EA0752CDE90042001C41F5801129
:1005700032462B4600F08DF903B0BDE8F08F4046BF
:100580002146F9E7001B61EB0201001C41F58013D5
:1005900000185B412018A2F5001747EB030140EA61
:1005A000D570B6196D4111E06D084FEA360645EA7F
:1005B000C0754FEA0752001B61EB0201001C41F5B8
:1005C000801149084FEA30000019514132462B464C
:1005D00003B0BDE8F04F00F04DB900980122400093
:1005E0000023D0EB020263EBE073009821464FEA50
:1005F000E074B8EB000061EB0401E9E783F000432D
:100600005BE781F0004158E72DE9FE4F81EA0304E2
:1006100004F0004421F0004100944FF0000B23F05F
:10062000004350EA01045ED052EA03045BD0C3F3F6
:100630000A54C1F30A552C44A4F2F3340194A0FBEC
:100640000254C1F3130141F48011C3F3130343F4C3
:10065000801301FB024400FB034E840A970A44EA1C
:10066000815447EA8357A4FB076802958D0A05FB6E
:1006700007854FEA932C04FB0C542705029D4FEA93
:10068000065847EA1637B5EB08056EEB070C870EE0
:10069000920E47EA811742EA8312A7FB0201B6EBEA
:1006A0000B0164EB00042B0D43EA0C335E1844EBA2
:1006B0001C50DA465146E7FB0201C5F313044FEA2A
:1006C0000B3343EA14534FEA0432019C43EA060316
:1006D000A4F10C040294009CCDE900B400F0D9F818
:1006E00003B0BDE8F08F00200146F9E72DE9F04D99
:1006F00081EA030404F0004B21F0004514464FF05A
:10070000000A23F0004150EA050220D054EA010219
:100710001DD0C5F30A570246C5F31303C1F31300F6
:10072000C1F30A5640F4801543F48013A7EB060882
:10073000101BD64608F2FD3873EB050002D308F112
:10074000010801E092185B41B8F1000F03DA0020C4
:100750000146BDE8F08D00204FF480110646844626
:100760000EE0171B73EB050705D3121B63EB0503A4
:1007700006434CEA010C49084FEA300092185B41ED
:1007800050EA0107EDD152EA030012D082EA0400D8
:1007900083EA0501084305D0101BAB4106D20122B4
:1007A000002306E000224FF0004302E06FF0010258
:1007B00053101AEB06004CEB085110EB0A0041EB0A
:1007C0000B01BDE8F04D00F055B8C1F30A52C1F37A
:1007D000130140F2FF3341F480119A4202DA002003
:1007E0000146704740F233439A42A2F2334202DCA0
:1007F0005242FFF7D3BDFFF7C2BD000030B5041E63
:1008000071F1000404DB4FF00044404264EB01014D
:10081000141E73F1000405DB1C464FF000435242E6
:1008200063EB0403994208BF904230BD064C074D6C
:1008300006E0E06840F0010394E8070098471034B0
:10084000AC42F6D3FFF7B6FC4846010868460108FB
:10085000202A06DBCB17203A41FA02F043EAE07384
:1008600006E041FA02F3D040C2F120029140084371
:100870001946704710B5141E73F1000408DA401CC5
:1008800041F1000192185B411A4301D120F00100AF
:1008900010BD2DE9F04D92469B4611B1B1FA81F29F
:1008A00002E0B0FA80F220329046FFF768FD04467D
:1008B0000F4640EA0A0041EA0B0153465A460843F4
:1008C00013D0114653EA010019D0C8F14002504636
:1008D000FFF764FD05460E46504659464246FFF76F
:1008E0004EFD084305D0012004E020463946BDE80E
:1008F000F08D0020054346EAE0762C4337430A9802
:100900006305E40AA0EB08000022FD0A44EA47540C
:100910000A3002D500200146E9E7010510196941B6
:10092000DDE9084500196941BDE8F04DA2E770B561
:100930008C1810F8015B15F0070301D110F8013B8A
:100940002A1106D110F8012B03E010F8016B01F811
:10095000016B5B1EF9D12B0705D40023521E0DD469
:1009600001F8013BFAE710F8013BCB1A921C03E0B7
:1009700013F8015B01F8015B521EF9D5A142D8D3EF
:10098000002070BD10B510F09CFD002010BD0000CF
:100990002DE9F04F87B000257548016841F004014A
:1009A0000160016801F004010191016841F0010159
:1009B0000160016801F001010191016841F002014B
:1009C0000160016801F002010191016841F010012C
:1009D0000160016801F010010191016841F0080116
:1009E0000160006800F008000190802602960395DF
:1009F0000124049402A95F4800F072FF20030290D2
:100A000002A95D4800F06CFF4FF48079CDF80890A2
:100A1000039404940227059702A9584800F060FF48
:100A20001020029002A9534800F05AFF4020029083
:100A300002A9514800F054FF4FF0200ACDF808A059
:100A400002A94F4800F04CFF029602A94A4800F064
:100A500047FF4FF4007BCDF808B002A9494800F0E9
:100A60003FFF4FF48068CDF80880049702A94548FD
:100A700000F036FF012210213E4801F028F8012243
:100A8000C0213D4801F023F8012249463B4801F0CE
:100A90001EF8012259463B4801F019F80022414650
:100AA000384801F014F801222021354801F00FF8F0
:100AB0004FF4C05002900395049402A9314800F00D
:100AC0000FFF6003029003940495059702A92D4837
:100AD00000F006FF4FF4604002900395049402A9D1
:100AE000254800F0FDFECDF8089002A9244800F04A
:100AF000F7FE029603940495059502A9204800F09C
:100B0000EFFE029703940495059502A91D4800F095
:100B1000E7FE029403940495059502A9194800F094
:100B2000DFFECDF808A00395049402A9124800F056
:100B3000D7FE029603940494059502A90E4800F08E
:100B4000CFFE012202210F4800F0C1FF0022012147
:100B50000C4800F0BCFF01228021094800F0B7FFDB
:100B600000228021044800F0B2FF07B0BDE8F08FFA
:100B700030380240000802400004024000000240F9
:100B8000000C02400010024010B503F0D1FA6420BE
:100B900007F07CFA06F05EF804F0E6FB002211464E
:100BA000202003F025FA08F0F5FB0D4801220DA1E5
:100BB000006808F02DFC09F0F3F948B103F0B8FA29
:100BC000242109A2084604F0EBFC06A011F03EFC2B
:100BD0004FF4FA6007F05AFABDE8104003F03CB851
:100BE00078230020303A00005570646174696E67A4
:100BF0002E2E2E007CB502F081FF0446194D0C26E6
:100C0000DCB10021012C02D0022C08D00BE0686876
:100C1000401C68602A2806D92A20686003E06868BA
:100C200008B1401E6860CDE9006102232021362012
:100C30006A6803F079FC03F0EBFB032C11D101206F
:100C4000CDE900600223202136206A6803F06CFCA5
:100C500003F0DEFB044869680068BDE87C400FF0E3
:100C6000EFBC7CBDA00000204C000020002200232F
:100C700001E08354521C8A42FBDB70472DE9FE4F92
:100C80006A20029002200190C1014F4800F018FF35
:100C90007A26782707244FF076094FF0740A4FF030
:100CA000720B4FF00108002568B36E226C202346BA
:100CB0000095019903F0E3FA5A4670202346009507
:100CC000019903F0DCFA3246384623460095019933
:100CD00003F0D5FA4A46504623460095019903F0A1
:100CE000CEFA7C2406237E2203212046CDF8008004
:100CF00003F0C5FA029803B029462246BDE8F04F3A
:100D0000092303F097BA4FF40041304800F0D8FEB1
:100D1000E8B15A46702023460095019903F0AFFAD6
:100D20004A46504623460095019903F0A8FA3246F8
:100D3000384623460095019903F0A1FA23466E2216
:100D40006C20CDF80080019903F099FAC9E74FF4BF
:100D500080411E4800F0B4FEB0B14A4650462346DA
:100D60000095019903F08BFA3246384623460095E8
:100D7000019903F084FA23465A467020CDF800808A
:100D8000019903F07CFAD9E74FF400510F4800F0C5
:100D900097FE78B12346324638460095019903F014
:100DA0006EFA23464A465046CDF80080019903F07A
:100DB00066FAE0E7234632463846CDF800800199CE
:100DC00003F05DFAEDE70000000C02400004024071
:100DD0002DE9FC5F6A250220019001247C277E22F8
:100DE000032106233846009403F049FA002609231C
:100DF00031463A46284603F01DFA2102644800F0C5
:100E00005FFE6E227A274FF06C0C4FF0720B4FF0A2
:100E100076094FF0740A4FF078080725D8B160467C
:100E20002B460094019903F02AFA5A4670202B466B
:100E30000096019903F023FA4A4650462B46009645
:100E4000019903F01CFA3A4640462B460096019958
:100E500003F015FA05E02B4660460094019903F073
:100E60000EFA03F0D5FA4FF4FA7007F00FF94FF4C9
:100E70000041484800F024FEA8B15A4670202B4695
:100E80000094019903F0FBF94A4650462B46009620
:100E9000019903F0F4F93A4640462B460096019931
:100EA00003F0EDF906E02B465A46702000940199B4
:100EB00003F0E5F903F0ACFA4FF4FA7B584607F07B
:100EC000E5F84FF48041334800F0FAFD70B14A462E
:100ED00050462B460094019903F0D1F93A4640461A
:100EE0002B460096019903F0CAF906E02B464A46C4
:100EF00050460094019903F0C2F903F089FAD946EB
:100F0000484607F0C3F8DFF88CA04FF48041504604
:100F100000F0D6FD4FF4005BF0B95946504600F0A2
:100F2000CFFDC8B12B463A4600944046019903F0E4
:100F3000A6F903F06DFA484607F0A8F82B463A46A2
:100F400000964046019903F09AF903F061FA484689
:100F5000BDE8FC5F07F09AB85946504600F0B0FD76
:100F600028B95946504600F0ABFD00280DD12B465C
:100F70003A4640460094019903F081F903F048FA9B
:100F80004846BDE8FC5F07F081B8BDE8FC9F000063
:100F9000000C02400004024010B500F01BF800F005
:100FA00021F8044800F00AF802480349407B087021
:100FB00010BD0000A43200203D02002008B504A2AC
:100FC000126800920146684608F07CF9002008BDCE
:100FD0000100000010B508F08FF8BDE8104008F0DF
:100FE00099B80000F8B500241DA00068009008F032
:100FF00045F908F07BF8012801D108F0D7F8194D20
:101000004FF440761749684608F05CF9287855286F
:1010100007D008F06BF8012805D008F067F828B170
:1010200010E00020F8BD08F0C1F80BE00D4968465B
:1010300008F048F9287855280FD02046641CA4B23F
:10104000B042F3D32878552804D02046641CA4B2BB
:101050000528D7D36FF00D00F8BD0020F8BD0000C3
:1010600055000000A432002010B503F0D1FA02F0C0
:10107000B3FC02F0CFFC02F083FB02F0E9FEBDE816
:10108000104003F0C5BA10B50A46110602F07F03FE
:1010900006D503EB830100EBC10101F58E7105E07C
:1010A00002EB820100EBC10101F55D7100248C703F
:1010B0000B70D2094A7005F00DFC002010BD70B510
:1010C0000D4605F07F0404EB84012E0600EBC10100
:1010D00002D501F58E7101E001F55D710C70ED092D
:1010E0004D708A60CB7005B1CC80022B01D10022FB
:1010F0000A7105F0C1FB002070BD10B501F07F043E
:1011000004EB840100EBC10101F55D71CA604B6124
:1011100000238B614B700C70C378012B00D10A61E6
:101120000A781AB105F014FC002010BD05F01AFB76
:10113000FAE7002261F30A120069016811430160B5
:10114000704710B50A46110602F07F0306D503EB7F
:10115000830100EBC10101F58E7105E002EB820114
:1011600000EBC10101F55D7101248C700B70D20997
:101170004A7005F0CDFB002010BD70B501F07F0472
:1011800004EB840100EBC10101F58E7101254D7066
:101190000C70CA600A6100228A614B61002C03D086
:1011A00005F0D6FB002070BD05F0DCFAFAE738B593
:1011B0000446204605F0ADFAE068C16821F4705598
:1011C0000095C560204605F099FC014600200329E2
:1011D00011D00120A0704020A08025F4705000F5AF
:1011E000A0500090E1680098C8604FF40050E1689A
:1011F0004861012038BDA0704FF40070A08025F434
:10120000705000F510500090ECE70000F8B505466E
:10121000002400200090284605F099FC064652E084
:10122000F0074ED0E1B2284600F0CEF90090C0079A
:101230001CD0012101FA04F22869436B93434363F4
:10124000009105EB8400806981602148E1B200686B
:10125000426828469047E878012807D134B995F8C4
:101260001101042802D1284605F0F0FA0098000781
:1012700005D50820009005EB8401896988600098F5
:10128000C00605D51020009005EB840189698860AF
:101290000098400605D54020009005EB840189693F
:1012A00088600098800705D50220009005EB840136
:1012B000896988600098000603D52146284600F019
:1012C00091F9641C7608002EAAD10120F8BD000017
:1012D000F40000202DE9FC41054600240020019087
:1012E000284605F03AFC0646274F47E0F00743D072
:1012F000E1B2284605F037FC0190C00726D0012155
:10130000019105EB8400426D9160E97801290DD1CE
:10131000406D0069009004EB840105EBC101C0F34E
:101320001200D1F87C23101AC1F88C033868E1B29E
:10133000026828469047E878012807D134B995F823
:101340001101052802D1284605F080FA019880078E
:1013500005D50220019005EB8401496D8860019854
:10136000000709D538688168284688470820019019
:1013700005EB8401496D8860641C7608002EB5D1A8
:101380000120BDE8FC810000F400002038B50446CF
:10139000A07A002808D0D4F80C01016821F00201DD
:1013A00021F00101009101602069416821F00101F3
:1013B0004160054800688169204688474FF0004039
:1013C000E1684861012038BDF40000207CB5054685
:1013D00010200190E868816921F010018161E868BE
:1013E000006A009000F00F0101EB810105EBC104E0
:1013F00004F55D740099C1F34341072923D2DFE866
:1014000001F0222204222222160047F6F07108423F
:1014100019D0C0F30A1632462846E16805F0ABFB46
:10142000E0683044E060A0693044A0610BE008222D
:1014300005F2CC51284605F09EFB0099A069C1F346
:101440000A110844A061E868816941F010018161D6
:1014500001207CBD10B50446044920460968C968CE
:1014600088470821E0684161012010BDF400002098
:101470001FB504460020009094F812010090174810
:1014800000684169204688472069806801904FF4D0
:1014900000610391E2685161A17AE1B1C0071AD0FD
:1014A00094F81501012816D19DF80000032812D1E7
:1014B000D4F80C01016841F00101016003200290A1
:1014C000D4F80C01016841F003010160044801688F
:1014D00041F00601016004B0012010BDF4000020BD
:1014E00010ED00E070B586B0044600250595049522
:1014F000039502950095012601962069416821F027
:10150000010141600021204605F0D6FA0020FF22AB
:1015100006E004EB80018B699A60496D8A60401C8B
:1015200061788142F5D821694FF0FF308861ADF8CC
:101530001460ADF8166021690598C86145F008008F
:1015400040F0010040F002002169486145F00100CF
:1015500040F0080040F0020021690861206901683C
:1015600021F4FE610160204605F070F94FF48050CF
:10157000E16848610348006801692046884706B071
:10158000012070BDF400002010B504460549204636
:101590000968C96988474FF48011E06841610120FA
:1015A00010BD0000F400002010B504460549204697
:1015B0000968096A88474FF40011E0684161012019
:1015C00010BD0000F400002002691369526BCA408C
:1015D00002F0010243EAC21200EB810080698068D8
:1015E000104070472DE9F84306460F460020009052
:1015F00007EB870006EBC00404F58E74D4E90501FF
:10160000401AA168814200D20846C01C4FEA9009E6
:1016100006EB8708D8F818008069009021E0D51AF9
:10162000A268AA4200D21546E81C4FEA9009ABB264
:10163000FAB23046E16805F0AEFAE0682844E060AE
:10164000A0692844A061D8F81810896900916169DF
:10165000814206D12078012181403069426B8A4362
:101660004263009880B2484505D9D4E905239342E6
:1016700001D2002AD3D10120BDE8F88330B41E483E
:101680001F4D1F4A00681D4C1D4B603DB83AA042DB
:1016900005D91A495439096801F0006110E09842EF
:1016A00005D916495839096801F0006108E0A842D7
:1016B00003D9516801F0006102E0116801F0006196
:1016C000002916D04FF00061A04203D90B484C38D6
:1016D00001600AE0984203D908485038016004E0EC
:1016E000A84201D9D16000E091600648006830BC92
:1016F000004730BC70470000781A00205864024050
:10170000B8600240900000204FF4FA74074D06E0E4
:10171000FFF7B4FA02F07CFE20460FF0F4FA8021C5
:10172000284600F0CDF90128F6D1F1E70008024083
:10173000012000F0C7B8000010B5002107A00EF08E
:1017400063FB0B4CE06300210AA00EF05DFB2064FC
:1017500000210DA00EF058FB606410BD41626F7255
:1017600074576176706C61795F4576656E740000C0
:1017700014000020506C617974576176706C617947
:101780005F4576656E7400004F4C45445F44697355
:10179000706C61795F4576656E740000002810D02A
:1017A000012810D0022810D0032810D0042810D00F
:1017B000052810D0062810D0072810D04FF48070CC
:1017C000704710207047182070472020704728204D
:1017D000704730207047402070476020704780205D
:1017E0007047000030B4054608461346590701D03B
:1017F000012100E0002101EBD3015943CAB22C784A
:101800006978812C0AD3402908D3FF2906D0FF2C00
:1018100004D07F290DD24039CDB20CE00021002345
:1018200003E000F8013B491CC9B29142F9D330BC36
:1018300070474139CDB2813CE1B2C1EB411404EBB8
:10184000811105EB41015143104C0C2B0BD0102B97
:101850000FD0182B13D0202BE9D1D4F8213030BC75
:10186000194405F035BAD4F8093030BC194405F0F4
:101870002FBAD4F8113030BC194405F029BAD4F885
:10188000193030BC194405F023BA00004C23002065
:1018900031B500F023F9044600F020F90099001B4F
:1018A0008842F9D338BD0000012802D101A005F01B
:1018B00093BB7047B4A5B7A2B0B4BCFCD6D0B6CF2A
:1018C0000A00000070B50446044D2868204203D089
:1018D0002046FFF7E9FF2C6070BD0000143C01407A
:1018E0002DE9F84F0022DFF8A491DFF8A08109F17B
:1018F00008094FF0010E4FF00F0C09F1040A0EFA1F
:1019000002F60B683340B34271D14C68022C01D00F
:10191000122C11D1D40800EB84073D6A5407E40E61
:101920000CFA04FB25EA0B05D1F810B00BFA04FB06
:101930004BEA050BC7F820B0076854000325A54003
:10194000AF4391F804B00BF0030B0BFA04FB4BEA26
:10195000070BC0F800B04F68012F05D0022F03D04D
:10196000112F01D0122F11D18768AF43D1F80CB0DD
:101970000BFA04FB4BEA070BC0F808B04768B74303
:101980000E79C6F3001696403E434660C668AE43E5
:101990008D68A5403543C5604C68E4006FD53C4C6C
:1019A000256845F480452560246804F4804400944B
:1019B000384C22F003052544D5F808789407260F03
:1019C0000CFA06F4A743344CA04201D100242EE0C7
:1019D000324CA04201D1012429E0314CA04201D176
:1019E000022424E02F4CA04202D103241FE046E051
:1019F0002D4CA04201D1042419E02C4CA04201D16D
:101A0000052414E02A4CA04201D106240FE0294C01
:101A1000A04201D107240AE0274CA04201D10824AA
:101A200005E0264CA04201D1092400E00A24B4407C
:101A30003C43C5F80848D8F800409C434D68ED0386
:101A400000D51C43C8F80040104D2D1D2C689C4348
:101A50004E68B60300D51C432C60D9F800409C4367
:101A60004D68ED0200D51C43C9F80040DAF800408B
:101A70009C434D68AD0200D51C43CAF80040521C7F
:101A8000102AFFF43CAFBDE8F88F0000003C014095
:101A9000443802400030014000000240000402408F
:101AA00000080240000C02400010024000140240F6
:101AB00000180240001C02400020024000240240A6
:101AC0000069084201D00120704700207047002AB9
:101AD00001D08161704709048161704710B50FF032
:101AE00079FA4FF47A714843B0FBF1F010BD000071
:101AF00002480168491C016070470000C4000020D2
:101B000010B50B48016841F400710160016841F4AF
:101B100080610160016841F480710160032000F080
:101B200051F80F2000F006F800F015F8002010BD65
:101B3000003C024010B5044600F0B8F94FF47A7248
:101B4000B0FBF2F001F03BFA00222146501E00F0FB
:101B500019F8002010BD704700F01F0201219140CC
:101B60004009800000F1E020C0F88012704700F0CA
:101B70001F02012191404009800000F1E020C0F8DF
:101B800000117047F0B40D460D4B1B68C3F30223E0
:101B9000C3F10704042C00D90424191D072901D21C
:101BA000002300E0DB1E012606FA04F1491E29404D
:101BB00099409E40761E16403143F0BC02F0A8BA10
:101BC0000CED00E000F00701054A10684FF6FF0336
:101BD000184040EA012003490843106070470000A4
:101BE0000CED00E00000FA052DE9F8431E480168FD
:101BF00041F080510160006800F0805000900127A2
:101C0000380490FAA0F0DFF86480B0FA80F048F869
:101C10002070FFF763FF05464FF47A76144C07E017
:101C2000FFF75CFF401BB04202D90320BDE8F883F8
:101C30006068C003F4D54FF4003090FAA0F0B0FA19
:101C400080F048F82070FFF749FF054606E0FFF7EF
:101C500045FF401BB04201D90320E7E760688003DD
:101C6000F5D50020E2E700004038024000000E42B7
:101C7000007000402DE9F04704460F46DFF824A22B
:101C8000DAF80000DFF8208200F00F00864907F044
:101C9000FF0941F2883608F10808B84274D28AF880
:101CA0000090DAF8000000F00F00B84202D00120E6
:101CB000BDE8F0872078800707D5D8F80000A26833
:101CC00020F0F0001043C8F800002078C00734D09E
:101CD0006068012808D002280BD0032809D00968C1
:101CE00089070BD40120E3E70968890306D40120A2
:101CF000DEE70968890101D40120D9E7D8F800108E
:101D000021F003010143C8F80010FFF7E7FE054684
:101D1000606801280BD0022817D003281ED02CE0C1
:101D2000FFF7DCFE401BB04201D90320C0E7D8F822
:101D30000000C0F381000128F2D197E0FFF7CEFE4A
:101D4000401BB04201D90320B2E7D8F80000C0F32D
:101D500081000228F2D189E00320A9E7D8F8000029
:101D6000FFF7BCFE401BB042F8D9F5E7FFF7B6FE1F
:101D7000401BB04201D903209AE7D8F8000010F0C8
:101D80000C0FF3D172E0FFE72078800707D5D8F871
:101D90000000A26820F0F0001043C8F8000020788E
:101DA000C00759D06068012808D002280BD003284A
:101DB00009D0096889070BD4012079E709688903EC
:101DC00006D4012074E70968890101D401206FE776
:101DD000D8F8001021F003010143C8F80010FFF704
:101DE0007DFE0546606801280BD0022817D0032825
:101DF0001ED02CE0FFF772FE401BB04201D9032039
:101E000056E7D8F80000C0F381000128F2D123E0A2
:101E1000FFF764FE401BB04201D9032048E7D8F821
:101E20000000C0F381000228F2D115E003203FE753
:101E3000D8F80000FFF752FE401BB042F8D9F5E792
:101E4000FFF74CFE401BB04201D9032030E7D8F821
:101E5000000010F00C0FF3D18AF80090DAF80000BF
:101E600000F00F00B84201D0012021E720784007A0
:101E700007D5D8F80000E16820F4E0500843C8F81E
:101E800000002078000708D5D8F80000216920F468
:101E9000604040EAC100C8F800000F20FFF74AFE8A
:101EA000002005E7003C02400038024010B500F079
:101EB00043F808490968F02292FAA2F201F0F00111
:101EC000B2FA82F2D140044A515CC840034908602A
:101ED00010BD0000083802404A44010800000020FC
:101EE00010B5FFF7E3FF074909684FF4E05292FA93
:101EF000A2F201F4E051B2FA82F2D140024A515CFE
:101F0000C84010BD083802404A44010810B5FFF728
:101F1000CDFF074909684FF4604292FAA2F201F43A
:101F20006041B2FA82F2D140024A515CC84010BD11
:101F3000083802404A44010830B51D48006810F0D6
:101F40000C011C481AD01C4C042916D0082915D1A4
:101F5000174A121F116801F03F0113685D0247F62E
:101F6000C0730CD5B4FBF1F01168194093FAA3F3D8
:101F7000B3FA83F3D94048430BE0204630BDB0FBB1
:101F8000F1F01168194093FAA3F3B3FA83F3D9403F
:101F9000484311684FF4403292FAA2F201F4403102
:101FA000B2FA82F2D140491C4900B0FBF1F030BDD9
:101FB000083802400024F40040787D012DE9F84FF4
:101FC0000446DFF83C932078CE4DC0074FF0000662
:101FD00041F2883A4DD0D9F80000C0F381000128C1
:101FE00009D0D9F80000C0F3810002280BD1281DC8
:101FF0000068400207D5286880033AD5606848BB6E
:102000000120BDE8F88FDFF8FC8208F1020888F8AB
:102010000060FFF763FD074606E0FFF75FFDC01BAA
:10202000504501D90320ECE728688003F5D42079D6
:1020300088F80000606870B1FFF750FD074606E0C1
:10204000FFF74CFDC01B504501D90320D9E7286894
:102050008003F5D50DE0FFF741FD074606E0FFF7E9
:102060003DFDC01B504501D90320CAE72868800305
:10207000F5D42078DFF89082800754D5D9F8000095
:102080004FF0F80B10F00C0F0AD0D9F80000C0F395
:102090008100022818D19A48001F0068400213D41A
:1020A0002868800704D5E068012801D00120A8E74E
:1020B00028689BFAABF220F0F8012069B2FA82F2AC
:1020C0009040014329602EE0E068E0B10120C8F8AB
:1020D0000000FFF703FD074606E0FFF7FFFCC01B0B
:1020E000642801D903208CE728688007F5D5286883
:1020F0009BFAABF220F0F8012069B2FA82F290402C
:10210000014329600FE0C8F80060FFF7E7FC0746CD
:1021100006E0FFF7E3FCC01B642801D9032070E749
:1021200028688007F5D42078000728D5DFF8D0B1DB
:10213000764861690BF16C0B89B101210160FFF7F1
:10214000CDFC074606E0FFF7C9FCC01B642801D997
:10215000032056E7DBF800008007F4D50FE00660A7
:10216000FFF7BCFC074606E0FFF7B8FCC01B64287D
:1021700001D9032045E7DBF800008007F4D420787C
:10218000400755D55E483830016841F08051016004
:10219000006800F080500090DFF874B1DBF80000B8
:1021A00040F48070CBF80000FFF798FC074606E08B
:1021B000FFF794FCC01B642801D9032021E7DBF85A
:1021C0000000C005F4D54E4F68373E70FFF786FC1F
:1021D000834607E0FFF782FCA0EB0B00504501D9D6
:1021E00003200EE738688007F4D4207A3870A0689E
:1021F00078B1FFF773FC834607E0FFF76FFCA0EBB5
:102200000B00504501D90320FBE638688007F4D560
:102210000EE0FFF763FC834607E0FFF75FFCA0EBEF
:102220000B00504501D90320EBE638688007F4D451
:10223000A069E8B3D9F80010C1F3810102295CD08C
:10224000022805D0C8F86060FFF748FC04464FE05C
:10225000C8F86060FFF742FC064606E0FFF73EFC68
:10226000801B642801D90320CBE628688001F5D4BF
:10227000D4E90701084347F6C07292FAA2F2616AF4
:10228000B2FA82F29140A26A4FF0FF3303EB52029E
:102290004FF4403393FAA3F3B3FA83F39A40114314
:1022A0004FF0706292FAA2F20843B2FA82F200E0B2
:1022B00021E0E16A914008431149091F08600120AB
:1022C000C8F86000FFF70AFC044606E0FFF706FCCA
:1022D000001B642801D9032093E628688001F5D506
:1022E00009E0FFF7FBFB001B642801D9032088E607
:1022F00028688001F5D4002083E6012081E60000F3
:10230000083802400038024000004742800E474231
:102310000070004001A00EF023B80000525443D6D4
:10232000D0B6CF0A0000000010B504462068C1688E
:1023300049050CD58068400409D52046FFF7EAFF1F
:102340002068C16801F0800161F49061C1600349B7
:102350004FF4800008600120607710BD143C0140FC
:102360002DE9F047002790F8202081F85620828C34
:10237000A1F85420826A120E93090B70C2F38303F2
:102380004B7002F003028A70826A120CCA70028DCE
:10239000120A0A7190F828204A71C26A120E4FF68A
:1023A000FF7909EA0212CA80C26AC2F30742CB88E7
:1023B00043EA1213CB8002F00F020A72828DC2F33D
:1023C0000722D3094B72C2F380138B72C2F34013FE
:1023D000CB72C2F300130B7300244C73036A4FF0EB
:1023E0000108002B7ED0012BFCD0022B7BD02927AB
:1023F000C2F380134B769206520E8A761C3110F887
:10240000302F11F8023D43EAD2130B7002F07F0225
:102410004A704268120ED3098B70C2F34113CB701D
:10242000C2F382030B719207120F4A714268C2F322
:1024300007424B7943EA92134B71C2F3401301F800
:10244000063F4C7002F001028A708288C2F30722B4
:10245000D309CB70C2F380130B71C2F340134B71DD
:10246000C2F300138B71C2F38103CB7102F003023C
:102470000A72027952084A7281F80A808268120E42
:102480000A738268120C09EA0222CA810289C2F325
:102490000722CB891343CB81027A12060A61C268F4
:1024A000120E0B6943EA02420A61C268C2F3074294
:1024B0000B6943EA02220A618289C2F307220B698F
:1024C00013430B61027B0A750269120E4A75026999
:1024D000120C12068A61028AC2F307228B6943EA50
:1024E000024201E024E066E08A61027C8B6943EAF3
:1024F00002228A614269120E8B6913438B61426921
:10250000C2F307420B7F43EA12130B771207120D37
:10251000CA83828AC2F30722CB8B1343CB83007D0D
:10252000400881F8200081F821803846BDE8F08716
:102530009207120D0A6190F82C200B6943EA82027F
:102540000A61026B120E0B6943EA92130B61C2F32C
:10255000C2030B7502F007024A75026BC2F3074211
:1025600053098B75C2F38203CB759207520F0A761B
:10257000028EC2F307220B7E43EAD2130B760B695D
:102580005B1C0D7EAD1C08FA05FCA3FB0C5A4FEA40
:10259000EC7604FB0CAC03FB06C691F808C008FA05
:1025A0000CF30B65A5FB03CA06FB03A305FB043371
:1025B000C1E912C31CE790F82C209206920A0A6126
:1025C000026B120E0B6943EA02220A61026BC2F32C
:1025D00007420B6913430B61028EC2F307220B699A
:1025E0005B1C44F10005ED0445EA5335DB04C1E909
:1025F00012354FF400730B65FAE670B58AB00546E4
:102600000E46002409942C77284600F041F80394E4
:102610000494059406940794762008900094CDE9DC
:102620000140234622462146286802F071F92846D7
:1026300002F09AFC09909DF8240018B19DF824003E
:102640000AB070BD284602F073FB09909DF8240083
:1026500010B19DF82400F3E731462846FFF780FECD
:1026600009909DF8240038B9B6F8540000230204FC
:10267000284602F061FD0990D5E9051228698DE828
:1026800007000FCD02F044F99DF82400D8E70000C0
:1026900000B587B01C48016841F400610160006822
:1026A00000F40060019018481438016841F480017A
:1026B0000160016801F480010191016841F00401A9
:1026C0000160016801F004010191016841F0080115
:1026D0000160006800F0080001904FF4F85002908B
:1026E0000220039001200490032005900C20069006
:1026F00002A90648FFF7F4F80420029002A9044852
:10270000FFF7EEF807B000BD443802400008024071
:10271000000C02402DE9F04F8BB00446DDE914981F
:102720000D4616461F4621680020C862216A4FF4F4
:10273000007A022903D1D146760A46EAC756CDF877
:10274000189010210791402108910746099008012F
:102750000A9006A9206802F0F7F81021204602F03E
:102760001FF900282AD14FF0FF3BCDF800B008FB3D
:1027700009F00190902002904FF00209CDF80C90E2
:102780000497012005906946206802F09DF8B8F191
:10279000010F02D91220079001E011200790069640
:1027A00006A9206802F0D0F8B8F1010F1DD9122156
:1027B000204602F0F5F8074687B138460BB0BDE871
:1027C000F08F406B000409D50026206802F0B9F8AC
:1027D00045F82600761C082EF7D320352068416B7B
:1027E00040F22A321142ECD01AE01121204602F0C8
:1027F000D7F8074638000DD0E0E7406B000409D554
:102800000026206802F09DF845F82600761C082E68
:10281000F7D320352068416B40F22A621142ECD098
:102820002068406BC0050CD5B8F1010F09D9206AAA
:1028300018B1012801D0022803D1204600F030F859
:1028400007462168486B000703D5082088630420E9
:10285000B4E7486B800703D54846C1F83890ADE728
:10286000486B800603D5202088630620A6E7486BC6
:10287000800508D5C1F838A007209FE702F061F86D
:1028800001C5ABF1010B2068416B890202D5BBF198
:10289000000FF3D1216840F2FF50886338468DE77E
:1028A00010B586B00446002001900C210291402111
:1028B000039104900801059001A9206802F044F8F2
:1028C0000C21204602F06CF806B010BD70B58AB03D
:1028D00004460E460025206A032805D038B1012899
:1028E00005D0022803D02CE027200AB070BDB6F531
:1028F000805F06D0B6F5006F05D04EB1262565B1D4
:102900001FE02725FBE7204602F066FC0546F6E7B8
:10291000204602F028FC0546F1E760680490A068B4
:102920000590E0680690079660690890A069099094
:1029300007A807C88DE8070004A920680EC901F0A0
:10294000E7FF2846D1E72DE9F04F8DB00646DDE9D7
:1029500016A90C46174698460025002001903168BC
:10296000C862316A4FF4007B022903D1DA467F0A3C
:1029700047EAC857CDF820A01021099140210A91BB
:1029800080460B9008010C9008A9306801F0DCFF2C
:102990001021304602F004F8002870D1B9F1010F7F
:1029A00002D91920099001E018200990089708A978
:1029B000306801F0C9FFB9F1010F04D9192130467F
:1029C00001F0EEFF03E01821304601F0E9FF002896
:1029D00055D109FB0AF7401E0290039790200490FE
:1029E000CDF81480CDF818800120079002A9306836
:1029F00001F06AFFB9F1010F2BD85DE0406B400494
:102A000027D5781B202816D2810706D04FEA900AD6
:102A10000AF1010A4FF000080AE04FEA900AF9E7CC
:102A20002146306801F0A0FF241D2D1D08F101088A
:102A3000D0450ED2F4E74FF0000804EB880130686F
:102A400001F092FF08F10108B8F1080FF5D3203426
:102A500020353068416B40F21A321142CED031E05D
:102A6000406B400428D5781B202817D2810707D057
:102A70004FEA900A0AF1010A4FF000080BE038E033
:102A80004FEA900AF8E72146306801F06DFF241DF7
:102A90002D1D08F10108D0450ED2F4E74FF00008D3
:102AA00004EB8801306801F05FFF08F10108B8F11C
:102AB000080FF5D3203420353068416B40F21A629C
:102AC0001142CDD03068406BC0050BD5B9F1010F74
:102AD00008D9306A18B1012801D0022802D1304645
:102AE000FFF7DEFE3168486B000705D508208863D4
:102AF00004200DB0BDE8F08F486B800702D502209E
:102B00008863F6E7486BC00603D51020886305206C
:102B1000EFE7486B800503D5C1F838B00720E8E738
:102B200040F2FF50886301A9304602F077F903E0D4
:102B300001A9304602F072F90028DAD19DF804109C
:102B40000729F5D00629F3D0D3E770B50446002C49
:102B500004D094F85100002510B106E0012070BDAA
:102B600084F85050204600F033F8022084F85100D9
:102B70002068016821F040010160D4E901010843A7
:102B8000D4E903121143084361690843218B01F41E
:102B900000710843E1690843216A0843A16A0843B8
:102BA00021680860A069042101EA1040616A0843B5
:102BB000216848602168E06A08612068C16921F4E1
:102BC0000061C1616565012084F85100002070BD7D
:102BD0002DE9F04186B006462E4930682E4C02257C
:102BE00001274FF0050888421CD1206840F0010001
:102BF0002060206800F00100009027491431086827
:102C000040F480500860086800F480500090E02094
:102C10000190029503970495CDF8148001A91F48EF
:102C2000FEF75EFE1E49306888422FD1206840F0D2
:102C300008002060206800F008000090206840F044
:102C400002002060206800F002000090124810305E
:102C5000016841F400410160006800F40040009008
:102C6000182001900295039704950620059001A96C
:102C70000C48FEF735FE402001900295039704951D
:102C8000CDF8148001A90848FEF72AFE06B0BDE879
:102C9000F081000000300140303802400000024066
:102CA000003C004000040240000C02402DE9F843C3
:102CB0000446DDF8208094F85100012804D0222831
:102CC00002D00220BDE8F88369B162B15BB194F82B
:102CD0005000012809D0012784F8507094F8510061
:102CE000012804D006E00120ECE70220EAE73220C8
:102CF00084F8510000266665A263A387E3872163F9
:102D0000A386E386A664E664A06A4FF40055A84251
:102D100009D12068016821F4005101602068016830
:102D200041F40051016020680168490603D401683C
:102D300041F040010160E0684FF48271B0F5006F2E
:102D400008D06068002875D0884202D1E08E012842
:102D50007CD084E0606820B188420CD1E08E0128EC
:102D600009D1206B21680088C860206B801C20631B
:102D7000E08E401EE086E08EE8BBA06AA84204D147
:102D80002068016841F4805101604346002201211E
:102D9000204602F02FFB08B1032093E72068C068AB
:102DA000A16B0880A06B801CA063E08F401EE087B1
:102DB000B6E0434600220221204602F01BFB08B188
:102DC00003207FE7206B21680088C860206B801C8F
:102DD0002063E08E401E80B2E08638B9A06AA84227
:102DE00004D12068016841F480510160002243460B
:102DF0000121204600E00EE002F0FCFA08B10320B9
:102E000060E72068C068A16B0880A06B801CA0638D
:102E1000E08F401EE087E08E0028CAD1606800285D
:102E20007ED1434600220121204602F0E3FA10B190
:102E3000032047E70AE02068C068A16B0880A06B08
:102E4000801CA063E08F401EE08769E0206B411C7E
:102E5000216321680078C860E08E401EE086E08E25
:102E6000E8BBA06AA84204D12068016841F48051FF
:102E70000160434600220121204602F0BBFA08B15E
:102E800003201FE72068C068A16B0870E08F401E18
:102E9000E08745E0434600220221204602F0AAFADC
:102EA00008B103200EE7206B411C216321680078E4
:102EB000C860E08E401E80B2E08638B9A06AA842A1
:102EC00004D12068016841F480510160434600222A
:102ED0000121204602F08EFA10B10320F2E608E04C
:102EE0002068C168A06B421CA2630170E08F401E85
:102EF000E087E08E0028CDD1606888B94346002283
:102F00000121204602F076FA08B10320DAE62068B3
:102F1000C168A06B421CA2630170E08F401EE08775
:102F2000A06AA84211D1434600220121204602F0A6
:102F300061FA28B1606D40F0020060650320C1E6CF
:102F40002068C0680090BDF800004346012280213F
:102F5000204602F04FFA28B1606D40F02000606515
:102F60000320AFE684F8517020688168C1F3001136
:102F7000A26AAA4211D181B1616D41F0020161657D
:102F8000016821F4005101602068016841F400519A
:102F9000016084F85060012094E684F850600020BD
:102FA00090E64FF0E021042804D0086920F00400E6
:102FB00008617047086940F004000861704710B567
:102FC000401EB0F1807F01D3012010BD4FF0E024FE
:102FD00060610F21601701F09BF80020A0610720BD
:102FE0002061002010BD704790F83900704738B557
:102FF000044621680868C0F30000CA6802F48072C1
:10300000002807D032B1086848680090E06B40F0B3
:103010000100E0630868C0F340004A6902F0010261
:1030200038B132B1086848680090E06B40F00400A5
:10303000E0630868C0F38002486900F001003AB11B
:1030400030B1086848680090E06B40F00200E0632F
:103050000868C0F3C0004A6902F0010238B132B119
:10306000086848680090E06B40F00800E06308687A
:10307000C0F34010C96801F0200118B111B1204619
:1030800002F071FC20680168C1F3C011C06800F053
:10309000800019B110B1204602F0B6FD2068016829
:1030A000C1F38011C06800F0400019B110B1204692
:1030B00002F044FCE06B002805D0012084F83900C0
:1030C0002046FFF790FF38BD70B50446002C04D0B1
:1030D00094F83900002510B106E0012070BD84F895
:1030E0003850204600F020F8022084F8390020688B
:1030F000C16821F40051C160204602F08DFC2068B7
:10310000016921F4904101612068416921F02A019F
:1031100041612068C16841F40051C160E56301204C
:1031200084F83900002070BD2DE9F04786B00446D0
:1031300037492068374D022607274FF000094FF422
:10314000806888422CD1286840F0010028602868F7
:1031500000F0010000902F481430016841F0100188
:103160000160006800F01000009068150190029660
:103170000120039004960597DFF89CA001A9504612
:10318000FEF7AEFBCDF8048001A95046FEF7A8FB80
:10319000002201212520FEF7F5FC2520FEF7E7FCA3
:1031A0001E492068884230D11A481030016841F425
:1031B00080210160006800F480200090286840F0C1
:1031C00002002860286800F002000090CDF804801A
:1031D0000296CDF80C9004960597114D01A928464A
:1031E000FEF77EFBE814019001A92846FEF778FB64
:1031F0002068C16841F02001C1602720FEF7B7FCBC
:10320000002211462720FEF7BDFC06B0BDE8F0877E
:1032100000100140303802400000024000480040E9
:103220000004024090F83930012B03D0122B01D05A
:103230000220704731B32AB390F83830012B23D0E5
:10324000012380F8383081628285C2850022C26302
:1032500090F83910122919D0222180F8391001680C
:10326000CB6843F48073CB6001684B6943F0010382
:103270004B6180F838200068C16841F02001C160CE
:10328000002070470120704702207047322180F8EB
:103290003910E4E730B40068154988420CD1154A6A
:1032A0005088010408D41146440409784FF0000303
:1032B0000DD50A2902D0538030BC704740F400403D
:1032C00050800E480C49006830BC0DF0B9B90D298A
:1032D0000AD0094DC0F30D042955401C80B250801E
:1032E000FE28E9D95380E7E740F480405080E3E7C7
:1032F0000048004094000020881D0020300000207D
:103300002DE9F04104460D46984694F8390001280D
:1033100004D0222802D00220BDE8F0819DB192B1F4
:1033200094F83800012810D0012684F8386000276E
:10333000E76394F83900222809D0122084F8390074
:10334000A284E2842EE00120E6E70220E4E73220B6
:1033500084F83900F4E7401EE084A068B0F5805F8F
:1033600008D0434600228021204602F082FCA8B10A
:103370000320D1E7434600228021204602F079FC59
:1033800008B10320C8E728882168C0F30800486016
:10339000206908B16D1C05E0AD1C03E0216815F83B
:1033A000010B4860E08C0028D5D143460022402123
:1033B000204602F05EFC08B10320ADE794F8390026
:1033C000322805D084F8396084F838700020A3E7EB
:1033D000222084F83900F7E7704700002DE9FE4FFE
:1033E00004468BA005C8CDE901020027B94600209C
:1033F00000908DF80410224601A9032001F018FA6C
:1034000010B16120BDE8FE8F94F801A004EB0A0022
:1034100010F8011C01F0800114F80A504678082EBB
:1034200002D04FF0FF08EEE06120EBE706EB05105D
:1034300021308DF805003DB1012D13D0022D24D08F
:10344000032D3BD06120DDE7A178701C08FA00F263
:1034500091438DF8061040F040008DF807008DF87C
:10346000001049E0A2788DF80620E178701C08FA77
:1034700000F399438DF8071040F040008DF80800E4
:103480008DF800208DF8011036E0A3788DF8063015
:10349000E2788DF807202179701C08FA00FC21EAF7
:1034A0000C018DF8081040F040008DF809008DF8EF
:1034B00000308DF801208DF802101DE0A2788DF803
:1034C000062094F803C08DF807C023798DF80830E2
:1034D0006179701C08FA00FB21EA0B018DF80910D4
:1034E00040F040008DF80A008DF800208DF801C0F2
:1034F0008DF802308DF80310281DC0B2224601A9B4
:1035000001F096F92078802801D061207AE7607870
:10351000221812F8013C03F08001802902D1275CB7
:1035200092F8019003F00F00C0F10800C2B2701CC5
:1035300082425AD13DB1012D18D0022D26D0032D43
:1035400031D061205EE79DF8062008FA00F0824342
:10355000A07802438DF80020E0788DF801002079F2
:103560008DF8020060798DF8030025E09DF80720B2
:1035700008FA00F08243A07802438DF80120E07839
:103580008DF8020020798DF8030015E09DF80820E1
:1035900008FA00F08243A07802438DF80220E07818
:1035A0008DF8030008E09DF8092008FA00F0824336
:1035B000A07802438DF803208020207084F801A0B9
:1035C0009DF80030A3709DF801C084F803C09DF8F9
:1035D000020020719DF80320627183EA0C035040C1
:1035E0004340A37180290ED101E061200AE7BD426A
:1035F00003D0E819C5B24E4605E0E819C5B206EB9E
:103600000900401CC6B280293FF410AF0020F9E643
:10361000002008000000000070B505461B4C9321F7
:103620002846FFF7DBFE18BB194EA6F10800F1781B
:1036300004291FD0B5F80310818169798173A979B4
:103640009322227070226270F278042A16D08822A7
:10365000A2708289A4F80320807B6071A171282068
:103660000823E0712A462146184601F0E1F848B1E6
:10367000612070BDD5F80210C160E0E7C068C4F8F1
:103680000200EBE7A878B073002070BDA6320020DE
:10369000AE34002070B505461D4C95212846FFF735
:1036A0009DFE28BB1B4EA6F10800F178072921D00A
:1036B000B5F80310A0F80F1069794174A979952223
:1036C000227070226270F278072A18D08822A270C5
:1036D000B0F80F20A4F80320407C6071A17128206D
:1036E0000823E0712A462146184601F0A1F858B196
:1036F000612070BDD5F80210C0F80F10DEE7D0F8D9
:103700000F00C4F80200E9E7A878B073002070BD8C
:10371000A6320020AE34002070B50546164C972125
:103720002846FFF75BFE08BB1448D5F80210C0F826
:103730000F10AA799721217070230221637000F184
:103740000806F3780A2B04D1D0F80F00C4F8020061
:103750000621481CC0B262542822411CCBB222541C
:103760002A462146184601F063F808B1612070BD71
:10377000A878B073002070BDA6320020A6340020C7
:1037800070B51A4D2846FFF747FFC8B9184CA07B03
:10379000400703D52846FFF77DFF88B9A07B400787
:1037A00003D52846FFF7B8FF50B9A07B800609D59E
:1037B00000F0CAF80120E073284600F041F908B192
:1037C000612070BD012000F033F80A480221017029
:1037D000A07B094A10F0600F05D0800601D50420B7
:1037E0001070002070BD1170FBE70000A4320020B3
:1037F000AE3400203B0200203C0200200B49087838
:10380000800908D001280BD0022803D10A20C870F3
:103810000320887070470420C870012088707047AA
:103820000720C8700220887070470000AE34002066
:1038300010B586B01EA106C9CDE904121EA1096803
:1038400003911EA1096802911D4C1E490978342973
:1038500001D3062100E004211B4A9388042B01D2E6
:103860000423938012798DF811208DF81200002026
:103870008DF81300491CC8B2234604AA022100F0A7
:10388000A9FF80B903AB00223A210420009400F084
:10389000F5FF40B90A48009002AB012268210420DC
:1038A00000F0ECFF10B1612006B010BD0020FBE776
:1038B00000000000030300005A04000001DF0000C4
:1038C000A43200203D0200204602002010B586B040
:1038D00017A003C8CDE9040117A00068039017A042
:1038E00000680290164C17480078342801D306204F
:1038F00000E00420401CC0B2234604AA022100F0CC
:1039000069FF80B903AB00223A210420009400F043
:10391000B5FF40B90A48009002AB0122682104209B
:1039200000F0ACFF10B1612006B010BD0020FBE735
:1039300000000000020200005A04000001DF000045
:10394000A43200203D02002010B586B01CA003C8A0
:10395000CDE904011CA0006803901CA0006802903F
:103960001B4C1C480078342801D3062000E00420BA
:1039700004218DF8111000218DF812100C218DF802
:103980001310401CC0B2234604AA022100F022FFFB
:1039900080B903AB00223A210420009400F06EFFAE
:1039A00040B90B48009002AB01226821042000F0CE
:1039B00065FF10B1612006B010BD0020FBE70000DC
:1039C00000000000030300005A04000001DF0000B3
:1039D000A43200203D02002010B500F00DF8FFF7E2
:1039E00075FF08B1612010BD024901200870002058
:1039F00010BD00004C020020054800210181C1607B
:103A00000161818208308170C170C1730174704797
:103A1000A634002010B5084C204600F041F820B92B
:103A20002146042000F02AFE08B1612010BD0349A0
:103A300001200874002010BDA4320020AE34002004
:103A400038B5044614A00068009022466946032059
:103A500000F0EEFE48B92146042000F00FFE20B928
:103A60002146022000F0DEFD08B1612038BDE0787B
:103A700000F00F00FDF792FE08494880E0788206CA
:103A800008D5C00603D560790009888002E0207956
:103A900000098880002038BDE08028004602002010
:103AA00038B5044609A00068009022466946022005
:103AB00000F0BEFE08B1612038BD05486188018173
:103AC0000830FFF79BFE002038BD000026070000ED
:103AD000A634002005280ED2DFE800F00305070910
:103AE0000B00002070470020704700207047002026
:103AF00070470020704722207047000070B52A4CA4
:103B000002212046FDF7DCFF284D012817D00421B3
:103B10002046FDF7D5FF012811D080212846FDF76A
:103B2000CFFF01280BD001212046FDF7C9FF012856
:103B300005D002212046FDF7C3FF20B331E050201D
:103B400004F0A4FA02212046FDF7BAFF012812D0A2
:103B500004212046FDF7B4FF01280ED0802128461D
:103B6000FDF7AEFF01280AD001212046FDF7A8FF8E
:103B7000012806D015E0012070BD022070BD032091
:103B800070BD042070BD04212046FDF799FF40B9A7
:103B900080212846FDF794FF18B901212046FDF742
:103BA0008FFF002070BD00000004024000100240A2
:103BB00010B586B000212448026842F00402026079
:103BC000026802F004020092026842F00102026000
:103BD000026802F001020092026842F002020260F2
:103BE000026802F002020092026842F010020260D3
:103BF000026802F010020092026842F008020260BD
:103C0000006800F00800009020200190029101203F
:103C1000039001A90D48FDF763FE02200190039077
:103C20000B4C01A92046FDF75BFE0421019101A97F
:103C30002046FDF755FE8020019001A90548FDF7BB
:103C40004FFE06B010BD00003038024000080240B0
:103C5000000402400010024000B587B0154801681A
:103C600041F080510160006800F0805001901148DF
:103C70001038016841F002010160006800F00200A4
:103C80000190012002900C480390022004900590BE
:103C900002A90A48FDF724FE0620FDF75DFF002279
:103CA00011460620FDF76EFF0620FDF760FF07B006
:103CB00000BD000040380240000011100004024026
:103CC00010B5002201211BA00CF01AFC1E4CA062B2
:103CD000002201211DA00CF013FCA0610022012193
:103CE0001EA00CF00DFCE0610022012121A00CF0CF
:103CF00007FC20620022012122A00CF001FC60627E
:103D00000022012124A00CF0FBFBE0620022012133
:103D100024A00CF0F5FB20630022012126A00CF06A
:103D2000EFFB60630022012127A00CF0E9FBA063F8
:103D300010BD00004E46435461675F437573746F56
:103D40006D49445F6D620000140000204E46435FE1
:103D500054616749445F6D620000000042756C6504
:103D6000546F6F74685F5472616E736665725F6DD5
:103D7000620000004E46435F53656E644D41435FF1
:103D80006D6200005468655F417569646F5F4E61E4
:103D90006D655F6D620000004C4F575F5057525F7A
:103DA0006D62000053746172745F506C6179696E6A
:103DB000675F6D620000000053746F705F506C614C
:103DC00079696E675F6D620057726974655F436100
:103DD00072645F6D6200000038B515460B4C628856
:103DE000002A10D10A4AD378602808D10091121D08
:103DF000294606F0E3FD80B26080002805D1054821
:103E000006F04EFE60800020608038BD5002002029
:103E1000AE340020443322117FB530238DF80C30AE
:103E20008DF80D00152323800525084E0020CDE9CF
:103E300000650A460290022103A807F049F9311FE4
:103E4000488088882080488804B070BD54020020D3
:103E500070B5C8B034A003C8CDE906010626142108
:103E600001A8FCF7D2FA07F013F8324606A9602041
:103E7000FFF7B2FF04462F4800222D4900680CF0DE
:103E800065FB2B4D103D29692BA00CF069FA2869C0
:103E900006F002FA05F10C01C870C97829A00CF0EF
:103EA0005FFA2CB905F10C01304600F073F80446B6
:103EB0005CB128A00CF054FA29A23021002001F0B6
:103EC0006FFB00F0A5FA4CB10DE028A00CF048FA09
:103ED00029A23021002001F063FBF2E708A9304657
:103EE000FFF79AFF04460020264908AA135C0B54EA
:103EF000401C0428FADB0878242807D148782728B2
:103F000004D121481F4900680CF09AFB1F48006843
:103F1000017F806906F074F901461D4800680CF0C5
:103F20008FFB48B0204670BDFFFFFFFFFFFF000082
:103F3000600200204C0000206E756D3D25780D0A52
:103F4000000000007478446174615B335D3D257846
:103F50000D0A0000D0B4C8EBCAA7B0DC0D0A0000FF
:103F6000D0B4C8EBCAA7B0DC00000000D0B4C8EBE6
:103F7000B3C9B9A60D0A0000D0B4C8EBB3C9B9A63D
:103F8000000000003E3600203C0000202001002000
:103F90002C0000202DE9FF410F46A0218DF80C10C8
:103FA0008DF80D00DFF8448001200A26CDE9008657
:103FB00003460290A8F10402022103A807F088F842
:103FC000A8F1040482B2628062B90020CDE90086C3
:103FD00002902B8822461021384607F079F860803D
:103FE000A0882880608804B0BDE8F08154020020D9
:103FF0002DE9F05F81460C46A046C2EB82104FEAE5
:10400000C00B00274FF6FF7A16480BEB0701465C02
:104010000025300605D501222146484600F0ECF87F
:1040200004E000222146484600F0E6F80AEA460687
:10403000641CE4B2A4EB08003F280CD06D1CADB2A8
:10404000082DE6D37F1CBFB2B7F5FC7FDCD3BDE8FB
:10405000F05F00F0DDB908F0FF0409F1010909F093
:10406000FF09EFE7343E010812A002F0B5FF00F0AF
:104070005FF8002114A2084601F092FA16A210215E
:10408000002001F08DFA18A22021002001F088FA0A
:1040900000F0BEF904F098FA10B916A006F022FC60
:1040A000FCF77AFFFCF7A6FD04F0A0F801200CF065
:1040B0002AFEF7E74E46435F5472616E736665727F
:1040C0005F5461736B0A0000CCFDD5EFC6F7D0B426
:1040D000BFA8B9A4D7B00000D0B4C8EBB7B6CEA77C
:1040E00020317E3433000000B5B1C7B0CAE4C8EB5C
:1040F0003A000000496E697469616C697A6174699B
:104100006F6E206661696C65642E2E0D0A000000DA
:104110000907090E002806DA00F00F0000F1E02080
:1041200080F8141D704700F1E02080F800147047FB
:1041300030B40021084B0022002003EBC00462547D
:10414000401CC0B28028F8D3491CC9B20829F3D357
:1041500030BC00F05DB900001C1F00202DE9FE4FAF
:1041600000250026171AA3EB010881468A46681E1F
:10417000002F03DD4FF00101019107E003D14FF063
:104180000001019102E00190C7F10007B8F1000FB2
:1041900003DD4FF00100009007E003D14FF0000075
:1041A000009002E00090C8F10008474501DD3C4660
:1041B00000E044464FF0000B601C029016E00AF04D
:1041C000FF0109F0FF000C9A00F016F83D44464448
:1041D000A54202DD2D1B01988144A64202DD361B5B
:1041E000009882440BF1010B1FFA8BFB0298834568
:1041F000E5DDBDE8FE8F000010B57F2813D83F290C
:1042000011D80723A3EBD103DBB201F00701C1F101
:1042100007040121A140C9B2054C04EBC0001AB14A
:10422000C25C0A43C25410BDC25C8A43C25410BD72
:104230001C1F00202DE9F84180460E4615461F46FA
:10424000012433462A46314640460094FFF786FF54
:104250003B464246314640460094FFF77FFF3B46CF
:104260002A46394640460094FFF778FF3B462A46E7
:10427000314628460094FFF771FFBDE8F8812DE92B
:10428000F04305460F4690461E46DDF81C900CE0B4
:104290003C4606E04A4621462846FFF7ADFF641C2F
:1042A000E4B2B442F6D96D1CEDB24545F0D9BDE893
:1042B000F083000070B586B000265048016841F0D8
:1042C00001010160016801F001010091016841F004
:1042D00008010160006800F0080000904FF4004001
:1042E00001900124029403940220049001A94448FF
:1042F000FDF7F6FA11200190424D01A92846FDF77D
:10430000EFFA2A21019101A92846FDF7E9FA0022D6
:1043100020212846FDF7DBFB3B4804603B4D2C6029
:104320002C616C60EE60642003F0B0FEEC60002154
:10433000AE2000F037F90021D52000F033F900213C
:10434000502000F02FF90021A82000F02BF90021C7
:104350003F2000F027F90021D32000F023F90021AD
:10436000084600F01FF90021402000F01BF9002151
:104370008D2000F017F90021142000F013F900211E
:10438000202000F00FF90021022000F00BF900219D
:10439000A12000F007F90021C02000F003F900215E
:1043A000DA2000F0FFF80021122000F0FBF80021D5
:1043B000812000F0F7F80021EF2000F0F3F8002151
:1043C000D92000F0EFF80021F12000F0EBF80021F7
:1043D000DB2000F0E7F80021302000F0E3F80021B6
:1043E000A42000F0DFF80021A62000F0DBF8002177
:1043F000AF2000F0D7F806B070BD000030380240A2
:1044000000000240000C0240BC0240428082414257
:1044100070B50BF0EBFC0025104E05F1B000C0B2FA
:10442000002100F0BFF80021084600F0BBF8002191
:10443000102000F0B7F8002406EBC4000121405D15
:1044400000F0B0F8641CE4B2802CF5D36D1CEDB222
:10445000082DE2D3BDE870400BF02EBD1C1F0020DC
:104460002DE9F84F83460E461F46B246780701D025
:10447000012000E0002000EBD70079084843C0B2DB
:104480000090203A02F0FF09002541E00C2F13D0E4
:10449000102F18D0182F3ED1204909EBC90001EB8D
:1044A0008000445D4FF00008200611D53146584683
:1044B0000A9AFFF7A1FE12E0194909EB490001EB46
:1044C0008000445DEEE7174800EB0910445DE9E722
:1044D0000A9890B1002231465846FFF78DFE6006DB
:1044E000040E761CF6B2A6EB0A00B84207D1564677
:1044F0000BF1010B0BF0FF0B08E00122EBE708F1D9
:10450000010808F0FF08B8F1080FCDD36D1CEDB21B
:1045100000988542BAD3BDE8F88F0000D830010872
:1045200074260108E82A01082DE9FF4F81B0804672
:10453000DDE90EB992461D46002600244FEA5B07CE
:104540001FE0281B401EC1B20A2006F098FEBAFBED
:10455000F0F00A21B0FBF1F201FB120026B9691E4E
:104560008C4201DA90B101263030C2B207FB0480E0
:10457000C0B25B46CDF800900299FFF771FF641C52
:10458000E4B2AC42DDD305B0BDE8F08F07FB048098
:10459000C0B25B462022CDF800900299FFF760FF81
:1045A000EDE7000070B50F4AC2F884120025C2F88A
:1045B000905200210C4B0124C2F88052060602D50D
:1045C000C3F8BC4201E0C3F8BC52C2F880424006C6
:1045D000000E491CC9B20829EED3C2F89042C2F8B5
:1045E000844270BD0080414200004042014801F019
:1045F000EFBD00004C03002008B504A21268009231
:104600000146684604F05EFE002008BD550000002B
:104610001FB5002003906B4603AA0021022000F082
:10462000D9F81FBD4A78012807D002280DD00328E9
:1046300014D004281AD001207047881840788007C9
:1046400001D52120704700207047881810F8010C10
:10465000800601D5212070470020704788184078D7
:10466000800701D5212070470020704788184078C6
:10467000800701D521207047002070470A78212A41
:104680000BD008285ED00ADC012816D0022819D0E9
:10469000042824D0072808D14BE02320704709289C
:1046A00059D00A285CD0552801D001207047552ADE
:1046B00001D021207047002070470AB121207047A7
:1046C000002070472AB1822A05D0832A05D02120F4
:1046D0007047002070472120704721207047803AA2
:1046E000112A24D2DFE802F0092323232323111304
:1046F0001517191B1D1F21230F00487808B1002032
:1047000070472120704700207047212070472120EA
:1047100070472120704721207047212070472120B9
:1047200070472120704721207047212070472120A9
:1047300070471AB1822A03D02120704700207047A9
:10474000212070471AB1822A03D02120704700200F
:104750007047212070470AB1212070470020704720
:10476000212070472DE9F0410024184E30780128AF
:1047700001D104F01BFD164D4FF440771448FFF7AC
:104780003BFF2878552804D03078012804D030B178
:1047900010E00020BDE8F08104F008FD0AE00C48BC
:1047A000FFF72AFF287855280ED02046641CA4B2B3
:1047B000B842F4D32878552804D02046641CA4B20B
:1047C0000528DBD32620E5E70020E3E740020020B0
:1047D000A4320020FEB504460F4616461D46134877
:1047E000FFF70AFF11480078552801D0FFF7BAFFFC
:1047F00021202870002068703846FFF76BF940B21E
:1048000008B12220FEBD02208DF800008DF8014085
:104810008DF80270621E31460DF10300FBF7CEFDEC
:104820002946684604F04EFD0020FEBDA43200205B
:1048300010B5C2B00B4614462121217000216170D1
:1048400004218DF804108DF80500024619460DF17B
:104850000600FBF7B3FD214601A804F033FD214615
:104860000420FFF70BFF38B12078872802D02120E1
:1048700042B010BD2820FBE70020F9E730B5C1B0F9
:10488000449D09248DF800408DF801008DF8021038
:104890008DF80320821E194601A8FBF78FFD2946DB
:1048A000684604F00FFD41B0002030BD01225103E5
:1048B0000148FDF70CB90000001002400148FDF767
:1048C00033BD00002C2300200A6842624A688262DD
:1048D000D1E902231A43D1E904310B431A43C16AD7
:1048E00021F0F7011143C162002070470069C0B296
:1048F0007047006800F003007047000008B50349E6
:10490000084400900098006808BD0000142C014085
:104910000FB4DDE901121143DDE903231A4311430A
:10492000059A1143069A1143426847F6FF639A437A
:104930000A434260002004B0704703210160002058
:104940007047D0F8800070470A688260D1E901237F
:104950001A43D1E903310B431A43C1686FF30B01CA
:104960001143C160002070470968C0F88010002022
:104970007047024600204FF4803113685A6BC2F32F
:10498000C01203E05A6BC2F3C012491E09B1002ADB
:10499000F8D019B140F2FF51996370470320704776
:1049A00070B504460E4600252068426B12F0450F94
:1049B000FBD0416B490704D50321042282630846DA
:1049C00070BD416BC90703D001218163084670BDEA
:1049D000FFF78CFFB04201D0102070BD216840F27B
:1049E000FF5088630020FFF789FF2949084201D161
:1049F000284670BD002801DA1C2070BD410001D599
:104A0000092070BD810001D50A2070BDC10001D50B
:104A10000B2070BD010101D50C2070BD410101D5F5
:104A20000D2070BDC10101D50E2070BD010201D560
:104A30000F2070BD410201D5102070BD810201D54B
:104A4000112070BDC10201D5122070BD010301D536
:104A5000132070BD410301D5142070BD810301D521
:104A6000152070BDC10301D5162070BD010401D50C
:104A7000172070BD410401D5182070BD810401D5F7
:104A8000192070BD000701D51A2070BD284670BDE1
:104A900008E0FFFD0146002009684A6B12F0450F4F
:104AA000FBD04A6B520703D5032004228A63704768
:104AB0004A6BD20702D001208863704740F2FF5250
:104AC0008A6370470146002009684A6B12F0450F5F
:104AD000FBD04A6B520703D5032004228A63704738
:104AE00040F2FF528A6370472DE9F04104460F46B9
:104AF000154600262068436B13F0450FFBD0416B31
:104B0000490705D50321042282630846BDE8F081E8
:104B1000416BC90703D0012181630846F6E7FFF71F
:104B2000E5FEB84201D01020F0E7216840F2FF50C6
:104B300088630020FFF7E2FE10F4604F03D0810489
:104B400005D51320E2E7000C28803046DEE741045B
:104B500001D51020DAE7000401D50F20D6E7304652
:104B6000D4E7024629204FF480311268536B13F0CA
:104B7000450307D0012305E0536B13F0450300D034
:104B80000123491E0BB90029F6D1536BC3F38003EF
:104B900001B11BB10320042191637047516B490699
:104BA000FBD500204021916370472DE9F04F8DB077
:104BB00004460F4600250026009601964FF008088F
:104BC000CDF820801020099040200A900B9600011B
:104BD0000C9008A92068FFF7B7FE10212046FFF7C8
:104BE000DFFE00282DD1A08C00040890372009900A
:104BF00008A92068FFF7A8FE37212046FFF7D0FE5E
:104C000000281ED1401E0290CDF80C803020049068
:104C10004FF00209CDF8149006960120079002A9E2
:104C20002068FFF751FE08963320099008A92068F4
:104C3000FFF78AFE33212046FFF7B2FE064630001A
:104C400002D00DB0BDE8F08FEA4640F22A6B07E0D3
:104C5000416B890204D5FFF774FE4AF825006D1CEC
:104C60002068416B11EA0B0FF2D02168496B0907EC
:104C700003D5C0F838800420E3E7416B890703D5EA
:104C8000C0F838904846DCE7416B890603D52021FF
:104C900081630620D5E7416B890504D54FF4007187
:104CA00081630720CDE740F2FF51816300980099AE
:104CB000000601F47F4140EA0120009901F47F01E0
:104CC00040EA1120009940EA11607860019801994A
:104CD000000601F47F4140EA0120019901F47F01BF
:104CE00040EA1120019940EA116038603046A8E797
:104CF00010B50E480C490160002141608160C1601F
:104D000001614161816100F16001FDF776FC08B14C
:104D1000012010BD4FF400610448FDF7D7FD08B134
:104D2000022010BD002010BD002C0140D01A002030
:104D300070B586B004460025012000902068FFF77A
:104D4000D8FDB8B1206AC026042825D000200190E3
:104D500002210291039604904802059001A920685F
:104D6000FFF7F2FD2046FFF795FE054625B12846E0
:104D700006B070BD2520FBE70020FFF7BFFDA06354
:104D80000420FFF7BBFDE0630820FFF7B7FD2064B8
:104D90000C20FFF7B3FD6064206A28B1012803D01E
:104DA000062801D0022810D1032002904020039051
:104DB00001A92068FFF7C8FD6A4603212046FFF7D6
:104DC00093FE05460DB12846D2E7206A042822D07A
:104DD000BDF8000060620004019009200290039673
:104DE00001A92068FFF7B0FD2046FFF753FE0546F6
:104DF0000DB12846BCE70020FFF780FDA06204202B
:104E0000FFF77CFDE0620820FFF778FD20630C20AF
:104E1000FFF774FD60632846AAE7000070B586B00E
:104E200004460D46002600200090A18C0904019143
:104E30000D2102914021039104900801059001A9E0
:104E40002068FFF781FD2068426B12F0450FFBD010
:104E5000416B490705D5032104228263084606B049
:104E600070BD416BC90703D0012181630846F6E795
:104E7000FFF73CFD0D2801D01020F0E7216840F23B
:104E8000FF5088630020FFF739FD00900098C0F3C1
:104E90004320287033490098084201D13046DEE7AC
:104EA0000098002801DA1C20D9E70098400001D5BD
:104EB0000920D4E70098800001D50A20CFE70098A8
:104EC000C00001D50B20CAE70098000101D50C20D5
:104ED000C5E70098400101D50D20C0E70098C0014A
:104EE00001D50E20BBE70098000201D50F20B6E7E0
:104EF0000098400201D51020B1E70098800201D54A
:104F00001120ACE70098C00201D51220A7E7009855
:104F1000000301D51320A2E70098400301D5142017
:104F20009DE70098800301D5152098E70098C003FD
:104F300001D5162093E70098000401D517208EE7CD
:104F40000098400401D5182089E70098800401D515
:104F5000192084E70098000701D51A207FE7304622
:104F60007DE7000008E0FFFD2DE9F04F87B0044623
:104F70004FF00009CDF80490002700250026A84630
:104F8000DFF834A1CAF8A0902068FFF7D6FC4FF0F4
:104F9000010BCAF8A0B0CDF80890CDF80C90CDF870
:104FA0001090CDF814904FF48060069002A920680C
:104FB000FFF7CAFC2046FFF7DCFC01909DF80400D7
:104FC00020B19DF8040007B0BDE8F08F4FF4D57014
:104FD0000290082003904FF0400ACDF810A002A9DB
:104FE0002068FFF7B1FC2046FFF7BBFD01909DF85C
:104FF000040018B9C4F820B04FF08048CDF80890EC
:105000003720039002A92068FFF79EFC3721204635
:10501000FFF7C6FC01909DF80400A8BB4FF6FF7B8C
:1050200039E0CDF8089037200390CDF810A0CDF8E6
:1050300014904FF48066069602A92068FFF784FC5E
:1050400037212046FFF7ACFC01909DF8040010B119
:105050009DF80400B7E7194848EA000002902920AB
:105060000390CDF810A0CDF81490069602A9206800
:10507000FFF76AFC2046FFF725FD01909DF804002C
:1050800018B19DF804009EE713E00020FFF736FCFE
:105090000746FE0F6D1C0EB95D45C2D35D4504D3B6
:1050A0001B2001909DF804008DE7780001D50220B7
:1050B00020629DF8040086E70080254200001080F1
:1050C0002DE9FC5F074691464FF0000A0C46E50DBE
:1050D00064020AF08BFEB8074FF400781BD000265C
:1050E0004FF0010B14E07002CDE9008B0219114959
:1050F00045EBE073A1F1B800FDF70CFB8246424698
:105100000C493846FBF75AF907F50077761CF6B2DA
:105110004E45E8D309E0074822462B463946B838C1
:10512000CDE90089FDF7F6FA82460AF0C5FE504641
:10513000BDE8FC9F881B002010B586B00446019294
:105140000720029040200390002004904FF48060DC
:10515000059001A92068FFF7F7FB07212046FFF71C
:105160001FFC06B010BD30B587B004460025009581
:1051700001950020FFF7C2FB800102D50E2007B089
:1051800030BD69462046FFF710FD0028F7D1019891
:10519000C0031FD5A08C000402903720039040204C
:1051A000049005950001069002A92068FFF7CCFB4A
:1051B00037212046FFF7F4FB0028E0D102950620B6
:1051C000039002A92068FFF7BFFB06212046FFF7E6
:1051D000E7FBD4E72520D2E730B587B004460025A9
:1051E000009501950020FFF789FB800102D50E2074
:1051F00007B030BD69462046FFF7D7FC0028F7D13D
:105200000198400320D5A08C000402903720039021
:105210004020049005950001069002A92068FFF740
:1052200093FB37212046FFF7BBFB0028E0D102208B
:1052300002900620039002A92068FFF785FB062153
:105240002046FFF7ADFBD3E72520D1E72DE9FC5F32
:10525000074690464FF0000B0C46E50D64020AF03D
:10526000C5FDB8074FF400791BD000264FF0010AA6
:1052700014E04A4639461248FBF7A0F87002CDE91F
:10528000009A02190E4945EBE073A1F1B800FDF751
:105290005AFB834607F50077761CF6B24645E8D3FD
:1052A00009E00748CDE9009822462B463946B83830
:1052B000FDF749FB83460AF0FFFD5846BDE8FC9F19
:1052C000881B002010B5124C104820604FF48270EB
:1052D00060600020A060E060022121610121616125
:1052E0004902A1613821E16120626062A062072069
:1052F000E0622046FDF729FC2068016841F040018A
:105300000160BDE81040FF2000F004B8003001400B
:105310004019002001B582B04FF47A70009001234B
:1053200001AA02A90248FDF7C1FC9DF804000EBDC8
:105330004019002010B50B4A11680B6823F0400398
:105340000B6011680B684FF6C77423400B6011683F
:105350000B6803430B601068016841F04001016075
:1053600010BD00004019002010B5104C0E48206000
:105370004FF4827060600020A060E0600221216133
:10538000012161614902A1611821E161206260622D
:10539000A0620720E0622046FDF7D7FB2068016885
:1053A00041F04001016010BD003C00409819002010
:1053B0002DE9F04106460F461546002405E0305D14
:1053C00000F008F82855641CE4B2BC42F7D3BDE8ED
:1053D000F081000001B582B04FF47A700090012393
:1053E00001AA02A90248FDF761FC9DF804000EBD68
:1053F000981900202DE9F05F04460F4693461D469C
:10540000FCF76CFB06464FF000084FF4005A4FF0D3
:105410000109BBF1000F26D050E0681C23D025B154
:10542000FCF75CFB801BA8421DD92068416821F075
:10543000E00141602068016821F040010160A06A3C
:10544000504509D12068016821F4005101602068AD
:10545000016841F40051016084F8519084F8508053
:105460000320BDE8F09F2068806837EA0000D4D1AF
:1054700029E0681C22D025B1FCF730FB801BA84234
:105480001CD92068416821F0E00141602068016872
:1054900021F040010160A06A504509D120680168EF
:1054A00021F4005101602068016841F4005101605D
:1054B00084F8519084F850800320D2E720688068F7
:1054C00037EA0000D5D00020CBE7000010B501215D
:1054D00002A00BF054F90849486110BD5553426FC2
:1054E00072417564696F5573696E675344494F5FC4
:1054F0004D75746578000000140000202DE9FF4F01
:10550000A1B00546DDE92E600C464FF0010BA24626
:105510000C2E05D0102E03D0182E01D0202E3CD1F9
:10552000F2B201A9FCF75EF94FF0000932E02398CE
:10553000854232D801A810F80980002724988442B7
:1055400010D85FEA086005D5E1B2E8B25A46FEF726
:1055500053FE07E0BBF1000F12D00022E1B2E8B227
:10556000FEF74AFE4FEA48604FEA1068641CA4B296
:10557000A4EB0A00B04205D154466D1CADB205E063
:105580000122EBE77F1CFFB2082FD7D309F10109F5
:1055900009F0FF09B9EB460FC9D325B0BDE8F08F7C
:1055A0002DE9FC470446894616464FF000080C27B3
:1055B0003046FAF741FFC0EBC0004006050E09F186
:1055C0000C0000F0FF0A2FE0B8F1000F0FD04FF0F1
:1055D0000008CDE9007653462A4649462046FFF7A3
:1055E0008DFF281BB8421BDDE019C4B219E08028EA
:1055F00002D94FF0010817E0009053462A46494669
:10560000204600F017F8281BB0EB570F03DD04EB22
:105610005700C4B200E02C46AC4208D2761C03E02E
:105620002C46AC4203D2B61C30780028CCD1BDE861
:10563000FC8700002DE9FF4F81B081460E980C4693
:10564000A246012100914FF00C08202803D92038F0
:1056500000F0FF0B01E04FF0000B00263AE0B8F13C
:105660000C0F0FD01E4800EB0B10855D0398814591
:1056700032D8002728060CD521464846009AFEF766
:10568000BBFD0DE017490BEB4B0001EB8000855D86
:10569000ECE70098B0B1002221464846FEF7ACFD89
:1056A0006806050E641CE4B2A4EB0A00404502D073
:1056B0000498844208D90AF0FF0409F1010909F0AD
:1056C000FF0905E00122E7E77F1CFFB2082FD1D3D5
:1056D000761CF6B24645C2D305B0BDE8F08F000097
:1056E000E82A0108742601087047000070B592B0DE
:1056F00000251B4C266846F080562660246804F07E
:1057000080540094174C266846F44046266024686E
:1057100004F44044009401240694079402240C9459
:1057200066050D960E910F901092119306A8FCF746
:1057300045FCFCF759FA00B1FEE70F2001900294F6
:1057400003954FF4A05004904FF48050059005212C
:1057500001A8FCF78FFA002800D0FEE712B070BD58
:105760004038024000700040704710B50AF0A6FDB6
:10577000FCF7BEF90BF034FCBDE810400AF0ACBDFC
:1057800070B51D4E306800F00C001C4B1C49002801
:105790000FD01C4D04280ED008280ED00B603068A6
:1057A000174AC0F30310121D105C0A68C2400A6059
:1057B00070BD0B60F3E70D60F1E70F4A121F106830
:1057C000C0F38054106800F03F0034B1B5FBF0F036
:1057D0001368C3F38813584305E0B3FBF0F0136874
:1057E000C3F3881358431268C2F30142521C52009B
:1057F000B0FBF2F00860D2E7083802400024F40061
:105800000000002040787D011048016841F47001DB
:1058100001600F48016841F0010101600C4A00215C
:105820000832116002680B4B1A400260031D0A4ADD
:105830001A60026822F48022026005480C30016080
:1058400002495806803908607047000088ED00E082
:1058500000380240FFFFF6FE1030002470470000C1
:105860002DE9FC4101256420CDE900506F023B4643
:1058700000221B491BA00BF020FA1E4C606008B1EF
:105880000BF034FB00201426CDE9000602463B460F
:1058900019491AA00BF011FAA06008B10BF026FB11
:1058A000CDE900564FF480652B460022184919A017
:1058B0000BF003FAE06008B10BF018FB0220CDE911
:1058C00000062B460022184918A00BF0F6F92061BB
:1058D000002803D0BDE8FC410BF008BBBDE8FC810B
:1058E000256F00085761765F506C617965725F546F
:1058F00061736B0014000020C16B00085553425FB8
:105900005472616E736665725F5461736B00000060
:10591000694000084E46435F5472616E736665725B
:105920005F5461736B0000000917000853746174C1
:1059300075735F5265666C617368000010B501682D
:10594000CA6822F04002CA6090F83910322906D0A5
:10595000012180F83910FDF73FFD002010BD222104
:1059600080F83910F7E710B590F83910222903D0E4
:10597000322901D0022010BD8168B1F5805F11D0BD
:10598000016919B30168496801F07F03816A4A1C03
:1059900082620B70C18D491E0904090CC1851CD09F
:1059A000002010BD816A02693AB102685268D2B221
:1059B0000A80816A491C8162ECE702685268C2F37E
:1059C00008020A80816A891C8162E3E701684A68EB
:1059D000816A4B1C83620A70DCE70168CA6822F0A6
:1059E0002002CA6090F83910322910D00168CA68C4
:1059F00022F48072CA6001684A6922F001024A6199
:105A0000012180F83910FDF745FC002010BD12215E
:105A100080F83910F7E700002DE9F04104462068CE
:105A2000016921F44051E2680A4302612068C168BB
:105A300049F20C6291432369A268E5691A436369DC
:105A40002B431A430A43C2602068416921F4407223
:105A5000A16911434161E06969496A4A64253226B6
:105A6000B0F5004F35D02068904201D088427CD1FB
:105A7000FCF74CFA00EBC00101EB001061688900F3
:105A8000B0FBF1F0B0FBF5F7FCF740FA00EBC0011A
:105A900001EB001061688900B0FBF1F8FCF736FA01
:105AA00000EBC00101EB001061688900B0FBF1F070
:105AB000B0FBF5F06FF01801484308EB800006EBEF
:105AC0000010B0FBF5F0216867F31F108860BDE897
:105AD000F0812068904201D088422FD1FCF716FA5D
