:020000040801F1
:10000000F8CD0220C5010108CD010108CB0201088D
:10001000D1010108D3010108D50101080000000049
:10002000000000000000000000000000D7010108EF
:10003000D901010800000000170201086F640108DF
:10004000DF010108DF010108DF010108114E01088D
:10005000DF010108DF01010815180108DF010108AF
:10006000DF010108DF010108DF010108DF010108EC
:10007000DF010108DF010108DF010108DF010108DC
:10008000DF010108DF010108DF010108DF010108CC
:10009000DF010108DF010108DF010108DF010108BC
:1000A000DF010108DF010108DF010108DF010108AC
:1000B00061650108DF010108DF010108DF010108B6
:1000C000DF010108DF010108DF010108DF0101088C
:1000D000DF010108756A0108DF010108B96A01083A
:1000E000DF010108DF010108DF010108DF0101086C
:1000F000DF010108DF010108DF010108DF0101085C
:10010000DF010108DF010108DF010108DF0101084B
:10011000DF010108DF010108DF010108DF0101083B
:10012000DF010108DF010108DF0101086117010893
:10013000DF010108DF010108DF010108DF0101081B
:10014000DF010108DF010108DF010108414B01085F
:10015000DF010108DF010108DF010108DF010108FB
:10016000DF010108DF010108DF010108DF010108EB
:10017000DF010108DF010108DF01010800000000C4
:10018000DF010108DF010108DF010108DF010108CB
:10019000DF010108DF010108DF010108DF010108BB
:1001A000DF010108DF010108DF010108DFF810D0DD
:1001B00000F03CFB0048004785090108AFF30080D0
:1001C000F8CD02200648804706480047FEE7FEE7D4
:1001D000FEE7FEE7FEE7FEE7FEE7FEE7FEE7FEE7F7
:1001E0000D650108AD010108EFF3108072B670478C
:1001F00080F310887047434A1368012B04D04FF0F6
:1002000001031360404A1060404A116040484FF0BB
:10021000805101607047EFF3108272B6394801686F
:1002200051B34FF0000101603748016891B1EFF31D
:1002300009811EF0100F08BF21ED108B21E9F00F8E
:100240004FF000041EF0100F08BF012441F8044DC8
:10025000006801602D490968096808C9B1E8F00F14
:10026000002B18BFB1EC108B81F309884EF0100EF3
:10027000002B18BF2EF0100E82F310884EF0040EE3
:10028000704722490860EFF3148222F0040282F3DF
:1002900014881D494FF0000008601A494FF0010012
:1002A00008601C484FF47F01D0F8002041EA0201A9
:1002B000016017484FF080510160174800680068DE
:1002C00080F3088861B662B670471EF0040F0CBF59
:1002D000EFF30880EFF3098020E9F00F40F804ED18
:1002E00040F804ED1EF0040F0CBF80F3088880F383
:1002F000098800B511F026FA5DF804EB4EF0040E03
:10030000704700008C030020840300208803002035
:1003100004ED00E020ED00E008ED00E02DE9F05FE5
:100320000546002092469B46884606468146402464
:100330001BE0284641464746224600F02FF8534628
:100340005A46C01A914110D311461846224600F071
:1003500016F82D1A67EB01084F46224601200021AE
:1003600000F00DF817EB00094E41201EA4F1010426
:10037000DFDC484631462A464346BDE8F09F202A46
:1003800004DB203A00FA02F1002070479140C2F1EC
:10039000200320FA03F3194390407047202A04DB1E
:1003A000203A21FA02F00021704721FA02F3D040EE
:1003B000C2F12002914008431946704710B5431A14
:1003C000934209D28318881803E010F8011D03F83E
:1003D000011D521EF9D210BD40EA01039B0703D054
:1003E00009E008C9121F08C0042AFAD203E011F874
:1003F000013B00F8013B521EF9D210BDD2B201E020
:1004000000F8012B491EFBD270470022F6E710B519
:1004100013460A4604461946FFF7F0FF204610BD72
:10042000421E12F8013F002BFBD111F8013B02F8EC
:10043000013B002BF9D17047421C10F8011B002929
:10044000FBD1801A704710B5002200E0521C835C7B
:100450008C5CA34201D1002BF8D1D8B2E1B2401A92
:1004600010BD30B504460020034600E05B1C9342FB
:1004700003D2E05CCD5C401BF8D030BD034611F8E0
:10048000012B00F8012B002AF9D11846704730B52E
:100490000B46014600202022012409E021FA02F542
:1004A0009D4205D303FA02F5491B04FA02F52844DC
:1004B000151EA2F10102F1DC30BD2DE9FE4F804690
:1004C00081EA0300C00F0C46009021F0004123F0A8
:1004D0000045B8EB0200A94105D2404621469046AE
:1004E0001C460B46024623F00040104347D0270D20
:1004F000C7F30A00C3F30A510290401A0190402842
:100500006BDAC3F3130040F4801B0098924620B1CD
:100510000023D2EB030A63EB0B0B01985946C0F1A1
:1005200040025046FFF72BFF06460D4650465946FF
:10053000019A00F08DF910EB08006141002487EA70
:10054000115284EAE7731A4340D0009A62B3019AC9
:10055000012A4FEA075215DC001B61EB02014FF044
:10056000004202EA0752CDE90042001C41F5801129
:1005700032462B4600F08DF903B0BDE8F08F4046BF
:100580002146F9E7001B61EB0201001C41F58013D5
:1005900000185B412018A2F5001747EB030140EA61
:1005A000D570B6196D4111E06D084FEA360645EA7F
:1005B000C0754FEA0752001B61EB0201001C41F5B8
:1005C000801149084FEA30000019514132462B464C
:1005D00003B0BDE8F04F00F04DB900980122400093
:1005E0000023D0EB020263EBE073009821464FEA50
:1005F000E074B8EB000061EB0401E9E783F000432D
:100600005BE781F0004158E72DE9FE4F81EA0304E2
:1006100004F0004421F0004100944FF0000B23F05F
:10062000004350EA01045ED052EA03045BD0C3F3F6
:100630000A54C1F30A552C44A4F2F3340194A0FBEC
:100640000254C1F3130141F48011C3F3130343F4C3
:10065000801301FB024400FB034E840A970A44EA1C
:10066000815447EA8357A4FB076802958D0A05FB6E
:1006700007854FEA932C04FB0C542705029D4FEA93
:10068000065847EA1637B5EB08056EEB070C870EE0
:10069000920E47EA811742EA8312A7FB0201B6EBEA
:1006A0000B0164EB00042B0D43EA0C335E1844EBA2
:1006B0001C50DA465146E7FB0201C5F313044FEA2A
:1006C0000B3343EA14534FEA0432019C43EA060316
:1006D000A4F10C040294009CCDE900B400F0D9F818
:1006E00003B0BDE8F08F00200146F9E72DE9F04D99
:1006F00081EA030404F0004B21F0004514464FF05A
:10070000000A23F0004150EA050220D054EA010219
:100710001DD0C5F30A570246C5F31303C1F31300F6
:10072000C1F30A5640F4801543F48013A7EB060882
:10073000101BD64608F2FD3873EB050002D308F112
:10074000010801E092185B41B8F1000F03DA0020C4
:100750000146BDE8F08D00204FF480110646844626
:100760000EE0171B73EB050705D3121B63EB0503A4
:1007700006434CEA010C49084FEA300092185B41ED
:1007800050EA0107EDD152EA030012D082EA0400D8
:1007900083EA0501084305D0101BAB4106D20122B4
:1007A000002306E000224FF0004302E06FF0010258
:1007B00053101AEB06004CEB085110EB0A0041EB0A
:1007C0000B01BDE8F04D00F055B8C1F30A52C1F37A
:1007D000130140F2FF3341F480119A4202DA002003
:1007E0000146704740F233439A42A2F2334202DCA0
:1007F0005242FFF7D3BDFFF7C2BD000030B5041E63
:1008000071F1000404DB4FF00044404264EB01014D
:10081000141E73F1000405DB1C464FF000435242E6
:1008200063EB0403994208BF904230BD064C074D6C
:1008300006E0E06840F0010394E8070098471034B0
:10084000AC42F6D3FFF7B6FCA05D0208C05D02081B
:10085000202A06DBCB17203A41FA02F043EAE07384
:1008600006E041FA02F3D040C2F120029140084371
:100870001946704710B5141E73F1000408DA401CC5
:1008800041F1000192185B411A4301D120F00100AF
:1008900010BD2DE9F04D92469B4611B1B1FA81F29F
:1008A00002E0B0FA80F220329046FFF768FD04467D
:1008B0000F4640EA0A0041EA0B0153465A460843F4
:1008C00013D0114653EA010019D0C8F14002504636
:1008D000FFF764FD05460E46504659464246FFF76F
:1008E0004EFD084305D0012004E020463946BDE80E
:1008F000F08D0020054346EAE0762C4337430A9802
:100900006305E40AA0EB08000022FD0A44EA47540C
:100910000A3002D500200146E9E7010510196941B6
:10092000DDE9084500196941BDE8F04DA2E770B561
:100930008C1810F8015B15F0070301D110F8013B8A
:100940002A1106D110F8012B03E010F8016B01F811
:10095000016B5B1EF9D12B0705D40023521E0DD469
:1009600001F8013BFAE710F8013BCB1A921C03E0B7
:1009700013F8015B01F8015B521EF9D5A142D8D3EF
:10098000002070BD10B512F022F9002010BD00004B
:100990002DE9F04F87B000257548016841F004014A
:1009A0000160016801F004010191016841F0010159
:1009B0000160016801F001010191016841F002014B
:1009C0000160016801F002010191016841F010012C
:1009D0000160016801F010010191016841F0080116
:1009E0000160006800F008000190802602960395DF
:1009F0000124049402A95F4801F000F8200302904A
:100A000002A95D4800F0FAFF4FF48079CDF8089014
:100A1000039404940227059702A9584800F0EEFFBA
:100A20001020029002A9534800F0E8FF40200290F5
:100A300002A9514800F0E2FF4FF0200ACDF808A0CB
:100A400002A94F4800F0DAFF029602A94A4800F0D6
:100A5000D5FF4FF4007BCDF808B002A9494800F05B
:100A6000CDFF4FF48068CDF80880049702A945486F
:100A700000F0C4FF012210213E4801F0B6F8012227
:100A8000C0213D4801F0B1F8012249463B4801F040
:100A9000ACF8012259463B4801F0A7F80022414634
:100AA000384801F0A2F801222021354801F09DF8D4
:100AB0004FF4C05002900395049402A9314800F00D
:100AC0009DFF6003029003940495059702A92D48A9
:100AD00000F094FF4FF4604002900395049402A943
:100AE000254800F08BFFCDF8089002A9244800F0BB
:100AF00085FF029603940495059502A9204800F00D
:100B00007DFF029703940495059502A91D4800F006
:100B100075FF029403940495059502A9194800F005
:100B20006DFFCDF808A00395049402A9124800F0C7
:100B300065FF029603940494059502A90E4800F0FF
:100B40005DFF012202210F4801F04FF80022012130
:100B50000C4801F04AF801228021094801F045F8CB
:100B600000228021044801F040F807B0BDE8F08F72
:100B700030380240000802400004024000000240F9
:100B8000000C02400010024010B503F07BFD642011
:100B900008F0E2FD07F0C4FB05F002FA002211465E
:100BA000202003F0CFFC09F05BFF0D4801220DA1CE
:100BB000006809F093FF0AF059FD48B103F062FDA7
:100BC000242109A2084605F06DFB06A012F0C4FF1F
:100BD0004FF4FA6008F0C0FDBDE8104003F088B99A
:100BE00090240020303A00005570646174696E678B
:100BF0002E2E2E002DE9FC4103F05EF8044601275D
:100C00001A4D0C26E4B1012C02D0022C08D00CE0C5
:100C10006868401C68602B2807D92B20686004E0B6
:100C20006868012801D0401E68600020CDE900609E
:100C30000223202136206A6803F020FF03F092FE91
:100C4000032C10D1CDE900670223202136206A68E9
:100C500003F014FF03F086FE054869680068BDE8EC
:100C6000FC4111F05BB8BDE8FC810000AC00002045
:100C70004C0000200022002301E08354521C8A42D1
:100C8000FBDB70472DE9FE4F6A20029002200190A5
:100C9000C1014F4800F0A2FF7A26782707244FF0C1
:100CA00076094FF0740A4FF0720B4FF001080025DF
:100CB00068B36E226C2023460095019903F089FDEC
:100CC0005A46702023460095019903F082FD324672
:100CD000384623460095019903F07BFD4A4650466D
:100CE00023460095019903F074FD7C2406237E229F
:100CF00003212046CDF8008003F06BFD029803B07D
:100D000029462246BDE8F04F092303F03DBD4FF4CC
:100D10000041304800F062FFE8B15A467020234697
:100D20000095019903F055FD4A465046234600952B
:100D3000019903F04EFD324638462346009501994D
:100D400003F047FD23466E226C20CDF80080019908
:100D500003F03FFDC9E74FF480411E4800F03EFF1D
:100D6000B0B14A46504623460095019903F031FD43
:100D70003246384623460095019903F02AFD234662
:100D80005A467020CDF80080019903F022FDD9E782
:100D90004FF400510F4800F021FF78B1234632464E
:100DA00038460095019903F014FD23464A46504603
:100DB000CDF80080019903F00CFDE0E723463246B0
:100DC0003846CDF80080019903F003FDEDE70000FF
:100DD000000C0240000402402DE9FC5F6A2502205D
:100DE000019001247C277E220321062338460094AB
:100DF00003F0EFFC0026092331463A46284603F06B
:100E0000C3FC2102644800F0E9FE6E227A274FF00D
:100E10006C0C4FF0720B4FF076094FF0740A4FF0E4
:100E200078080725D8B160462B460094019903F055
:100E3000D0FC5A4670202B460096019903F0C9FC5D
:100E40004A4650462B460096019903F0C2FC3A46AA
:100E500040462B460096019903F0BBFC05E02B466B
:100E600060460094019903F0B4FC03F07BFD4FF45D
:100E7000FA7008F071FC4FF40041484800F0AEFEF3
:100E8000A8B15A4670202B460094019903F0A1FCAA
:100E90004A4650462B460096019903F09AFC3A4682
:100EA00040462B460096019903F093FC06E02B4642
:100EB0005A4670200094019903F08BFC03F052FD18
:100EC0004FF4FA7B584608F047FC4FF48041334812
:100ED00000F084FE70B14A4650462B4600940199BA
:100EE00003F077FC3A4640462B460096019903F002
:100EF00070FC06E02B464A4650460094019903F0E8
:100F000068FC03F02FFDD946484608F025FCDFF8C1
:100F10008CA04FF48041504600F060FE4FF4005B1F
:100F2000F0B95946504600F059FEC8B12B463A4632
:100F300000944046019903F04CFC03F013FD484631
:100F400008F00AFC2B463A4600964046019903F009
:100F500040FC03F007FD4846BDE8FC5F08F0FCBB21
:100F60005946504600F03AFE28B95946504600F01E
:100F700035FE00280DD12B463A4640460094019993
:100F800003F027FC03F0EEFC4846BDE8FC5F08F0E8
:100F9000E3BBBDE8FC9F0000000C024000040240DF
:100FA00010B500F01BF800F021F8044800F00AF832
:100FB00002480349407B087010BD000058340020EF
:100FC0005503002008B504A2126800920146684645
:100FD00009F0DEFC002008BD0100000010B509F09A
:100FE000F1FBBDE8104009F0FBBB0000F8B50024A0
:100FF0001DA00068009009F0A7FC09F0DDFB0128A6
:1010000001D109F039FC194D4FF440761749684673
:1010100009F0BEFC2878552807D009F0CDFB01283F
:1010200005D009F0C9FB28B110E00020F8BD09F097
:1010300023FC0BE00D49684609F0AAFC28785528E6
:101040000FD02046641CA4B2B042F3D328785528B0
:1010500004D02046641CA4B20528D7D36FF00D003D
:10106000F8BD0020F8BD00005500000058340020F5
:1010700010B503F077FD02F071FD02F08DFD02F076
:1010800041FC03F08FF9BDE8104003F06BBD00692F
:10109000416841F002014160032006F047BC10B5F1
:1010A0000B4603F07F0202EB82011C0600EBC1013C
:1010B00002D501F58E7101E001F55D710A70DA0962
:1010C0004A7006F063FE002010BD10B50A461106F6
:1010D00002F07F0306D503EB830100EBC10101F5AC
:1010E0008E7105E002EB820100EBC10101F55D713B
:1010F00000248C700B70D2094A7006F029FE002083
:1011000010BD10B50A0604D501F07F0106F08EFF70
:1011100001E006F06DFF002010BD70B50D4605F032
:101120007F0404EB84012E0600EBC10102D501F51A
:101130008E7101E001F55D710C70ED094D708A60F2
:10114000CB7005B1CC80022B01D100220A7106F0D0
:10115000D1FD002070BD10B501F07F0404EB8401C7
:1011600000EBC10101F55D71CA604B6100238B6129
:101170004B700C70C378012B00D10A610A781AB148
:1011800006F03FFE002010BD06F02BFDFAE700221E
:1011900061F30A120069016811430160704710B5DC
:1011A0000A46110602F07F0306D503EB830100EB2C
:1011B000C10101F58E7105E002EB820100EBC10176
:1011C00001F55D7101248C700B70D2094A7006F034
:1011D000F8FD002010BD70B501F07F0404EB840120
:1011E00000EBC10101F58E7101254D700C70CA60D4
:1011F0000A6100228A614B61002C03D006F001FED7
:10120000002070BD06F0EDFCFAE738B50446204634
:1012100006F0BEFCE068C16821F470550095C56019
:10122000204606F025FF01460020032911D00120A9
:10123000A0704020A08025F4705000F5A0500090D0
:10124000E1680098C8604FF40050E16848610120EF
:1012500038BDA0704FF40070A08025F4705000F5E8
:1012600010500090ECE70000F8B50546002400207F
:101270000090284606F02BFF064652E0F0074ED0BD
:10128000E1B2284600F012FA0090C0071CD00121FC
:1012900001FA04F22869436B93434363009105EB21
:1012A0008400806981602148E1B200684268284674
:1012B0009047E878012807D134B995F8110104283E
:1012C00002D1284606F000FD0098000705D5082049
:1012D000009005EB8401896988600098C00605D5F7
:1012E0001020009005EB8401896988600098400611
:1012F00005D54020009005EB84018969886000983D
:10130000800705D50220009005EB8401896988607B
:101310000098000603D52146284600F0D5F9641C44
:101320007608002EAAD10120F8BD0000000100209F
:101330002DE9FC410546002400200190284606F0D6
:10134000CCFE0646274F47E0F00743D0E1B22846DF
:1013500006F0C9FE0190C00726D00121019105EBDE
:101360008400426D9160E97801290DD1406D0069DA
:10137000009004EB840105EBC101C0F31200D1F829
:101380007C23101AC1F88C033868E1B20268284641
:101390009047E878012807D134B995F8110105285C
:1013A00002D1284606F090FC0198800705D502205E
:1013B000019005EB8401496D88600198000709D50B
:1013C00038688168284688470820019005EB840129
:1013D000496D8860641C7608002EB5D10120BDE8F7
:1013E000FC8100000001002038B50446A07A0028E6
:1013F00008D0D4F80C01016821F0020121F00101AC
:10140000009101602069416821F0010141600548B7
:1014100000688169204688474FF00040E1684861D4
:10142000012038BD000100207CB505461020019048
:10143000E868816921F010018161E868006A009024
:1014400000F00F0101EB810105EBC10404F55D74AF
:101450000099C1F34341072923D2DFE801F022229A
:1014600004222222160047F6F071084219D0C0F378
:101470000A1632462846E16806F03DFEE068304430
:10148000E060A0693044A0610BE0082205F2CC5175
:10149000284606F030FE0099A069C1F30A110844FD
:1014A000A061E868816941F01001816101207CBD83
:1014B00010B50446044920460968C96888470821D0
:1014C000E0684161012010BD000100201FB5044605
:1014D0000020009094F812010090174800684169BC
:1014E000204688472069806801904FF4006103918D
:1014F000E2685161A17AE1B1C0071AD094F81501F0
:10150000012816D19DF80000032812D1D4F80C014F
:10151000016841F00101016003200290D4F80C0140
:10152000016841F0030101600448016841F00601CF
:10153000016004B0012010BD0001002010ED00E0AA
:1015400070B586B00446002505950495039502956F
:101550000095012601962069416821F00101416052
:101560000021204606F062FD0020FF2206E004EB89
:1015700080018B699A60496D8A60401C6178814264
:10158000F5D821694FF0FF308861ADF81460ADF8EF
:10159000166021690598C86145F0080040F0010017
:1015A00040F002002169486145F0010040F0080068
:1015B00040F00200216908612069016821F4FE61A0
:1015C0000160204606F080FB4FF48050E1684861DE
:1015D0000348006801692046884706B0012070BDB5
:1015E0000001002070B50446204606F095FD012557
:1015F00084F81251002084F81401002240230DE0E9
:1016000002EB820104EBC10101F58E714D700A708D
:10161000CA80C8708B60C8604861521C6178914272
:10162000EED800220DE002EB820104EBC10101F5CE
:101630005D7148700A70CA80C8708B60C86048616C
:10164000521C61789142EED8204606F099FA204665
:1016500006F06EF90021204606F0BEFD204606F099
:10166000B9F92046BDE8704006F0BABC10B5044692
:10167000054920460968C96988474FF48011E06828
:101680004161012010BD00000001002010B504469A
:10169000054920460968096A88474FF40011E06847
:1016A0004161012010BD00000001002002691369A2
:1016B000526BCA4002F0010243EAC21200EB810001
:1016C00080698068104070472DE9F84306460F4650
:1016D0000020009007EB870006EBC00404F58E7431
:1016E000D4E90501401AA168814200D20846C01C15
:1016F0004FEA900906EB8708D8F818008069009037
:1017000021E0D51AA268AA4200D21546E81C4FEA89
:101710009009ABB2FAB23046E16806F078FDE068B5
:101720002844E060A0692844A061D8F818108969AD
:1017300000916169814206D12078012181403069A0
:10174000426B8A434263009880B2484505D9D4E988
:101750000523934201D2002AD3D10120BDE8F883AA
:1017600030B41E481F4D1F4A00681D4C1D4B603D84
:10177000B83AA04205D91A495439096801F0006104
:1017800010E0984205D916495839096801F00061FE
:1017900008E0A84203D9516801F0006102E0116835
:1017A00001F00061002916D04FF00061A04203D97A
:1017B0000B484C3801600AE0984203D90848503879
:1017C000016004E0A84201D9D16000E091600648C0
:1017D000006830BC004730BC70470000901B002000
:1017E00058640240B86002409C0000204FF4FA7434
:1017F000074D06E0FFF746FA03F0B4F8204610F074
:10180000F0FD8021284600F0E9F90128F6D1F1E742
:1018100000080240012000F0E3B8000010B50021EC
:1018200007A00FF059FE0B4CE06300210AA00FF057
:1018300053FE206400210DA00FF04EFE606410BD29
:1018400041626F7274576176706C61795F4576653D
:101850006E74000014000020506C6179745761763A
:10186000706C61795F4576656E7400004F4C45443D
:101870005F446973706C61795F4576656E740000D2
:10188000002810D0012810D0022810D0032810D032
:10189000042810D0052810D0062810D0072810D012
:1018A0004FF4807070471020704718207047202038
:1018B00070472820704730207047402070476020D4
:1018C000704780207047000030B405460846134634
:1018D000590701D0012100E0002101EBD301594358
:1018E000CAB22C786978812C0AD3402908D3FF2901
:1018F00006D0FF2C04D07F290DD24039CDB20CE0A8
:101900000021002303E000F8013B491CC9B29142C9
:10191000F9D330BC70474139CDB2813CE1B2C1EB63
:10192000411404EB811105EB41015143104C0C2B88
:101930000BD0102B0FD0182B13D0202BE9D1D4F8BB
:10194000213030BC194406F029BDD4F8093030BC30
:10195000194406F023BDD4F8113030BC194406F008
:101960001DBDD4F8193030BC194406F017BD000075
:101970006424002010B50B480168001D0468001D98
:101980000068084400280BD00822074902F064F9D7
:10199000054920460422BDE81040103102F05CB930
:1019A00010BD0000107AFF1FC401002031B500F007
:1019B00023F9044600F020F90099001B8842F9D36E
:1019C00038BD0000012802D101A006F06BBE7047AF
:1019D000B4A5B7A2B0B4BCFCD6D0B6CF0A00000004
:1019E00070B50446044D2868204203D02046FFF716
:1019F000E9FF2C6070BD0000143C01402DE9F84F58
:101A00000022DFF8A491DFF8A08109F108094FF066
:101A1000010E4FF00F0C09F1040A0EFA02F60B68E2
:101A20003340B34271D14C68022C01D0122C11D139
:101A3000D40800EB84073D6A5407E40E0CFA04FB5B
:101A400025EA0B05D1F810B00BFA04FB4BEA050BA5
:101A5000C7F820B0076854000325A540AF4391F8AC
:101A600004B00BF0030B0BFA04FB4BEA070BC0F8B6
:101A700000B04F68012F05D0022F03D0112F01D0E5
:101A8000122F11D18768AF43D1F80CB00BFA04FBC9
:101A90004BEA070BC0F808B04768B7430E79C6F3A6
:101AA000001696403E434660C668AE438D68A5402A
:101AB0003543C5604C68E4006FD53C4C256845F45F
:101AC00080452560246804F480440094384C22F05A
:101AD00003052544D5F808789407260F0CFA06F478
:101AE000A743344CA04201D100242EE0324CA04246
:101AF00001D1012429E0314CA04201D1022424E08B
:101B00002F4CA04202D103241FE046E02D4CA042FE
:101B100001D1042419E02C4CA04201D1052414E089
:101B20002A4CA04201D106240FE0294CA04201D149
:101B300007240AE0274CA04201D1082405E0264CE6
:101B4000A04201D1092400E00A24B4403C43C5F876
:101B50000848D8F800409C434D68ED0300D51C436D
:101B6000C8F80040104D2D1D2C689C434E68B603EC
:101B700000D51C432C60D9F800409C434D68ED0211
:101B800000D51C43C9F80040DAF800409C434D687A
:101B9000AD0200D51C43CAF80040521C102AFFF4C5
:101BA0003CAFBDE8F88F0000003C014044380240E3
:101BB00000300140000002400004024000080240E2
:101BC000000C0240001002400014024000180240C5
:101BD000001C02400020024000240240006908422C
:101BE00001D00120704700207047002A01D0816198
:101BF000704709048161704710B510F059FD4FF42A
:101C00007A714843B0FBF1F010BD00000248016852
:101C1000491C016070470000D000002010B50B483F
:101C2000016841F400710160016841F48061016064
:101C3000016841F480710160032000F05DF80F201D
:101C400000F006F800F015F8002010BD003C02403E
:101C500010B5044600F0ECF94FF47A72B0FBF2F0E4
:101C600001F06FFA00222146501E00F025F80020F6
:101C700010BD704700F01F02012191404009800013
:101C800000F1E020C0F88012704700F01F0201212F
:101C900091404009800000F1E020C0F880117047B9
:101CA00000F01F02012191404009800000F1E02076
:101CB000C0F8001170470000F0B40D460D4B1B68D2
:101CC000C3F30223C3F10704042C00D90424191D13
:101CD000072901D2002300E0DB1E012606FA04F1E9
:101CE000491E294099409E40761E16403143F0BC63
:101CF00002F0B8BC0CED00E000F00701054A1068E6
:101D00004FF6FF03184040EA0120034908431060E2
:101D1000704700000CED00E00000FA0501204102D0
:101D200091FAA1F1024AB1FA81F142F8210070471B
:101D300000000E422DE9F8431E48016841F0805131
:101D40000160006800F0805000900127380490FA8C
:101D5000A0F0DFF86480B0FA80F048F82070FFF758
:101D60004BFF05464FF47A76144C07E0FFF744FF2B
:101D7000401BB04202D90320BDE8F8836068C0036D
:101D8000F4D54FF4003090FAA0F0B0FA80F048F8A3
:101D90002070FFF731FF054606E0FFF72DFF401BDF
:101DA000B04201D90320E7E760688003F5D5002041
:101DB000E2E700004038024000000E4200700040A0
:101DC0000B4A136823F003030343136009480268B6
:101DD00042F004020260012907D040BF20BF20BFAB
:101DE000016821F004010160704730BFF8E700008E
:101DF0000070004010ED00E02DE9F04704460F466A
:101E0000DFF824A2DAF80000DFF8208200F00F00EB
:101E1000864907F0FF0941F2883608F10808B84200
:101E200074D28AF80090DAF8000000F00F00B8428F
:101E300002D00120BDE8F0872078800707D5D8F8C8
:101E40000000A26820F0F0001043C8F800002078DD
:101E5000C00734D06068012808D002280BD00328BE
:101E600009D0096889070BD40120E3E709688903D1
:101E700006D40120DEE70968890101D40120D9E7F1
:101E8000D8F8001021F003010143C8F80010FFF753
:101E9000B3FE0546606801280BD0022817D003283E
:101EA0001ED02CE0FFF7A8FE401BB04201D9032052
:101EB000C0E7D8F80000C0F381000128F2D197E014
:101EC000FFF79AFE401BB04201D90320B2E7D8F8D1
:101ED0000000C0F381000228F2D189E00320A9E7C5
:101EE000D8F80000FFF788FE401BB042F8D9F5E7AC
:101EF000FFF782FE401BB04201D903209AE7D8F8D1
:101F0000000010F00C0FF3D172E0FFE7207880079B
:101F100007D5D8F80000A26820F0F0001043C8F8F8
:101F200000002078C00759D06068012808D0022836
:101F30000BD0032809D0096889070BD4012079E761
:101F40000968890306D4012074E70968890101D46E
:101F500001206FE7D8F8001021F003010143C8F811
:101F60000010FFF749FE0546606801280BD00228E3
:101F700017D003281ED02CE0FFF73EFE401BB042D6
:101F800001D9032056E7D8F80000C0F381000128EA
:101F9000F2D123E0FFF730FE401BB04201D903200D
:101FA00048E7D8F80000C0F381000228F2D115E01C
:101FB00003203FE7D8F80000FFF71EFE401BB042A9
:101FC000F8D9F5E7FFF718FE401BB04201D903200E
:101FD00030E7D8F8000010F00C0FF3D18AF8009029
:101FE000DAF8000000F00F00B84201D0012021E72C
:101FF0002078400707D5D8F80000E16820F4E050C9
:102000000843C8F800002078000708D5D8F8000079
:10201000216920F4604040EAC100C8F800000F20A8
:10202000FFF716FE002005E7003C024000380240A2
:1020300010B500F043F808490968F02292FAA2F2BC
:1020400001F0F001B2FA82F2D140044A515CC8407A
:102050000349086010BD000008380240665B0208B2
:102060000000002010B5FFF7E3FF074909684FF4AF
:10207000E05292FAA2F201F4E051B2FA82F2D140B7
:10208000024A515CC84010BD08380240665B020835
:1020900010B5FFF7CDFF074909684FF4604292FA87
:1020A000A2F201F46041B2FA82F2D140024A515CDC
:1020B000C84010BD08380240665B020830B51D48B4
:1020C000006810F00C011C481AD01C4C042916D0D2
:1020D000082915D1174A121F116801F03F01136832
:1020E0005D0247F6C0730CD5B4FBF1F011681940DE
:1020F00093FAA3F3B3FA83F3D94048430BE02046A5
:1021000030BDB0FBF1F01168194093FAA3F3B3FAB4
:1021100083F3D940484311684FF4403292FAA2F257
:1021200001F44031B2FA82F2D140491C4900B0FBBF
:10213000F1F030BD083802400024F40040787D0101
:102140002DE9F84F0446DFF83C932078CE4DC007C8
:102150004FF0000641F2883A4DD0D9F80000C0F3A4
:102160008100012809D0D9F80000C0F381000228BD
:102170000BD1281D0068400207D5286880033AD596
:10218000606848BB0120BDE8F88FDFF8FC8208F1E9
:10219000020888F80060FFF72FFD074606E0FFF70A
:1021A0002BFDC01B504501D90320ECE728688003B4
:1021B000F5D4207988F80000606870B1FFF71CFD45
:1021C000074606E0FFF718FDC01B504501D9032064
:1021D000D9E728688003F5D50DE0FFF70DFD074628
:1021E00006E0FFF709FDC01B504501D90320CAE7EF
:1021F00028688003F5D42078DFF89082800754D5D2
:10220000D9F800004FF0F80B10F00C0F0AD0D9F8F5
:102210000000C0F38100022818D19A48001F00680E
:10222000400213D42868800704D5E068012801D053
:102230000120A8E728689BFAABF220F0F80120699A
:10224000B2FA82F29040014329602EE0E068E0B1EA
:102250000120C8F80000FFF7CFFC074606E0FFF7B3
:10226000CBFCC01B642801D903208CE728688007B9
:10227000F5D528689BFAABF220F0F8012069B2FA94
:1022800082F29040014329600FE0C8F80060FFF738
:10229000B3FC074606E0FFF7AFFCC01B642801D97A
:1022A000032070E728688007F5D42078000728D538
:1022B000DFF8D0B1764861690BF16C0B89B101216F
:1022C0000160FFF799FC074606E0FFF795FCC01B8D
:1022D000642801D9032056E7DBF800008007F4D515
:1022E0000FE00660FFF788FC074606E0FFF784FC76
:1022F000C01B642801D9032045E7DBF800008007F4
:10230000F4D42078400755D55E483830016841F054
:1023100080510160006800F080500090DFF874B1D7
:10232000DBF8000040F48070CBF80000FFF764FC9D
:10233000074606E0FFF760FCC01B642801D90320B4
:1023400021E7DBF80000C005F4D54E4F68373E703A
:10235000FFF752FC834607E0FFF74EFCA0EB0B00B3
:10236000504501D903200EE738688007F4D4207A5D
:102370003870A06878B1FFF73FFC834607E0FFF7AD
:102380003BFCA0EB0B00504501D90320FBE638686D
:102390008007F4D50EE0FFF72FFC834607E0FFF738
:1023A0002BFCA0EB0B00504501D90320EBE638686D
:1023B0008007F4D4A069E8B3D9F80010C1F3810113
:1023C00002295CD0022805D0C8F86060FFF714FC31
:1023D00004464FE0C8F86060FFF70EFC064606E0D2
:1023E000FFF70AFC801B642801D90320CBE628688C
:1023F0008001F5D4D4E90701084347F6C07292FA88
:10240000A2F2616AB2FA82F29140A26A4FF0FF33FF
:1024100003EB52024FF4403393FAA3F3B3FA83F37E
:102420009A4011434FF0706292FAA2F20843B2FA56
:1024300082F200E021E0E16A914008431149091F5E
:1024400008600120C8F86000FFF7D6FB044606E0EC
:10245000FFF7D2FB001B642801D9032093E628680C
:102460008001F5D509E0FFF7C7FB001B642801D9FF
:10247000032088E628688001F5D4002083E6012047
:1024800081E6000008380240003802400000474260
:10249000800E47420070004001A00FF0CFBA00004C
:1024A000525443D6D0B6CF0A0000000010B50446FF
:1024B0002068C16849050CD58068400409D52046CC
:1024C000FFF7EAFF2068C16801F0800161F49061C4
:1024D000C16003494FF4800008600120607710BD9F
:1024E000143C01402DE9F047002790F8202081F8A6
:1024F0005620828CA1F85420826A120E93090B7028
:10250000C2F383034B7002F003028A70826A120CDA
:10251000CA70028D120A0A7190F828204A71C26AA4
:10252000120E4FF6FF7909EA0212CA80C26AC2F39C
:102530000742CB8843EA1213CB8002F00F020A72E3
:10254000828DC2F30722D3094B72C2F380138B72C0
:10255000C2F34013CB72C2F300130B7300244C730D
:10256000036A4FF00108002B7ED0012BFCD0022B18
:102570007BD02927C2F380134B769206520E8A76BF
:102580001C3110F8302F11F8023D43EAD2130B70C2
:1025900002F07F024A704268120ED3098B70C2F3B8
:1025A0004113CB70C2F382030B719207120F4A7171
:1025B0004268C2F307424B7943EA92134B71C2F36C
:1025C000401301F8063F4C7002F001028A708288C5
:1025D000C2F30722D309CB70C2F380130B71C2F38D
:1025E00040134B71C2F300138B71C2F38103CB71A3
:1025F00002F003020A72027952084A7281F80A80D4
:102600008268120E0A738268120C09EA0222CA81D9
:102610000289C2F30722CB891343CB81027A1206C7
:102620000A61C268120E0B6943EA02420A61C2687B
:10263000C2F307420B6943EA02220A618289C2F3AC
:1026400007220B6913430B61027B0A750269120EA4
:102650004A750269120C12068A61028AC2F30722C5
:102660008B6943EA024201E024E066E08A61027C71
:102670008B6943EA02228A614269120E8B69134315
:102680008B614269C2F307420B7F43EA12130B7757
:102690001207120DCA83828AC2F30722CB8B13431F
:1026A000CB83007D400881F8200081F821803846E6
:1026B000BDE8F0879207120D0A6190F82C200B6993
:1026C00043EA82020A61026B120E0B6943EA92131B
:1026D0000B61C2F3C2030B7502F007024A75026B6D
:1026E000C2F3074253098B75C2F38203CB7592077D
:1026F000520F0A76028EC2F307220B7E43EAD213F0
:102700000B760B695B1C0D7EAD1C08FA05FCA3FB68
:102710000C5A4FEAEC7604FB0CAC03FB06C691F8AE
:1027200008C008FA0CF30B65A5FB03CA06FB03A35C
:1027300005FB0433C1E912C31CE790F82C20920674
:10274000920A0A61026B120E0B6943EA02220A61C5
:10275000026BC2F307420B6913430B61028EC2F393
:1027600007220B695B1C44F10005ED0445EA533573
:10277000DB04C1E912354FF400730B65FAE670B55E
:102780008AB005460E46002409942C77284600F0AE
:1027900041F80394049405940694079476200890D5
:1027A0000094CDE90140234622462146286802F0E4
:1027B000CBFE284603F0F4F909909DF8240018B1E7
:1027C0009DF824000AB070BD284603F0CDF80990AA
:1027D0009DF8240010B19DF82400F3E73146284607
:1027E000FFF780FE09909DF8240038B9B6F8540030
:1027F00000230204284603F0BBFA0990D5E905122C
:1028000028698DE807000FCD02F09EFE9DF8240098
:10281000D8E7000000B587B01C48016841F40061AA
:102820000160006800F400600190184814380168E5
:1028300041F480010160016801F4800101910168A7
:1028400041F004010160016801F004010191016897
:1028500041F008010160006800F0080001904FF4A9
:10286000F85002900220039001200490032005906C
:102870000C20069002A90648FFF7C0F80420029039
:1028800002A90448FFF7BAF807B000BD4438024077
:1028900000080240000C02402DE9F04F8BB00446C6
:1028A000DDE914980D4616461F4621680020C862CF
:1028B000216A4FF4007A022903D1D146760A46EA0A
:1028C000C756CDF81890102107914021089107466E
:1028D000099008010A9006A9206802F051FE102113
:1028E000204602F079FE00282AD14FF0FF3BCDF8B8
:1028F00000B008FB09F00190902002904FF002090F
:10290000CDF80C900497012005906946206802F0EC
:10291000F7FDB8F1010F02D91220079001E0112054
:102920000790069606A9206802F02AFEB8F1010F6A
:102930001DD91221204602F04FFE074687B13846C6
:102940000BB0BDE8F08F406B000409D5002620686D
:1029500002F013FE45F82600761C082EF7D320352A
:102960002068416B40F22A321142ECD01AE011216A
:10297000204602F031FE074638000DD0E0E7406BFC
:10298000000409D50026206802F0F7FD45F826006E
:10299000761C082EF7D320352068416B40F22A625E
:1029A0001142ECD02068406BC0050CD5B8F1010F86
:1029B00009D9206A18B1012801D0022803D1204684
:1029C00000F030F807462168486B000703D508205F
:1029D00088630420B4E7486B800703D54846C1F8F4
:1029E0003890ADE7486B800603D520208863062029
:1029F000A6E7486B800508D5C1F838A007209FE7F7
:102A000002F0BBFD01C5ABF1010B2068416B8902EF
:102A100002D5BBF1000FF3D1216840F2FF5088636B
:102A200038468DE710B586B00446002001900C2191
:102A300002914021039104900801059001A92068AA
:102A400002F09EFD0C21204602F0C6FD06B010BD2E
:102A500070B58AB004460E460025206A032805D0CA
:102A600038B1012805D0022803D02CE027200AB075
:102A700070BDB6F5805F06D0B6F5006F05D04EB1DB
:102A8000262565B11FE02725FBE7204603F0C0F9A6
:102A90000546F6E7204603F082F90546F1E760684F
:102AA0000490A0680590E068069007966069089019
:102AB000A069099007A807C88DE8070004A9206845
:102AC0000EC902F041FD2846D1E72DE9F04F8DB047
:102AD0000646DDE916A90C46174698460025002053
:102AE00001903168C862316A4FF4007B022903D13A
:102AF000DA467F0A47EAC857CDF820A0102109918D
:102B000040210A9180460B9008010C9008A930687A
:102B100002F036FD1021304602F05EFD002870D133
:102B2000B9F1010F02D91920099001E0182009908C
:102B3000089708A9306802F023FDB9F1010F04D904
:102B40001921304602F048FD03E01821304602F01A
:102B500043FD002855D109FB0AF7401E0290039758
:102B600090200490CDF81480CDF8188001200790B3
:102B700002A9306802F0C4FCB9F1010F2BD85DE066
:102B8000406B400427D5781B202816D2810706D039
:102B90004FEA900A0AF1010A4FF000080AE04FEAF2
:102BA000900AF9E72146306802F0FAFC241D2D1D39
:102BB00008F10108D0450ED2F4E74FF0000804EB0D
:102BC0008801306802F0ECFC08F10108B8F1080F48
:102BD000F5D3203420353068416B40F21A3211426F
:102BE000CED031E0406B400428D5781B202817D286
:102BF000810707D04FEA900A0AF1010A4FF0000856
:102C00000BE038E04FEA900AF8E72146306802F01E
:102C1000C7FC241D2D1D08F10108D0450ED2F4E794
:102C20004FF0000804EB8801306802F0B9FC08F1AD
:102C30000108B8F1080FF5D3203420353068416B16
:102C400040F21A621142CDD03068406BC0050BD5FE
:102C5000B9F1010F08D9306A18B1012801D0022852
:102C600002D13046FFF7DEFE3168486B000705D51C
:102C70000820886304200DB0BDE8F08F486B800702
:102C800002D502208863F6E7486BC00603D5102002
:102C900088630520EFE7486B800503D5C1F838B09D
:102CA0000720E8E740F2FF50886301A9304602F0B0
:102CB000D1FE03E001A9304602F0CCFE0028DAD1B3
:102CC0009DF804100729F5D00629F3D0D3E770B595
:102CD0000446002C04D094F85100002510B106E001
:102CE000012070BD84F85050204600F033F80220D7
:102CF00084F851002068016821F040010160D4E9A6
:102D000001010843D4E903121143084361690843F0
:102D1000218B01F400710843E1690843216A0843EB
:102D2000A16A084321680860A069042101EA1040F3
:102D3000616A0843216848602168E06A0861206888
:102D4000C16921F40061C1616565012084F8510009
:102D5000002070BD2DE9F04186B006462E4930684E
:102D60002E4C022501274FF0050888421CD120680F
:102D700040F001002060206800F001000090274929
:102D80001431086840F480500860086800F48050EE
:102D90000090E0200190029503970495CDF81480EF
:102DA00001A91F48FEF72AFE1E49306888422FD12C
:102DB000206840F008002060206800F008000090C3
:102DC000206840F002002060206800F002000090BF
:102DD00012481030016841F400410160006800F4BD
:102DE000004000901820019002950397049506205A
:102DF000059001A90C48FEF701FE402001900295C4
:102E000003970495CDF8148001A90848FEF7F6FD54
:102E100006B0BDE8F08100000030014030380240CB
:102E200000000240003C004000040240000C024050
:102E30002DE9F8430446DDF8208094F8510001287C
:102E400004D0222802D00220BDE8F88369B162B123
:102E50005BB194F85000012809D0012784F8507024
:102E600094F85100012804D006E00120ECE702208C
:102E7000EAE7322084F8510000266665A263A38742
:102E8000E3872163A386E386A664E664A06A4FF421
:102E90000055A84209D12068016821F40051016061
:102EA0002068016841F4005101602068016849060A
:102EB00003D4016841F040010160E0684FF4827181
:102EC000B0F5006F08D06068002875D0884202D144
:102ED000E08E01287CD084E0606820B188420CD16B
:102EE000E08E012809D1206B21680088C860206B22
:102EF000801C2063E08E401EE086E08EE8BBA06A66
:102F0000A84204D12068016841F480510160434621
:102F100000220121204603F089F808B1032093E73D
:102F20002068C068A16B0880A06B801CA063E08F44
:102F3000401EE087B6E0434600220221204603F00F
:102F400075F808B103207FE7206B21680088C8600E
:102F5000206B801C2063E08E401E80B2E08638B972
:102F6000A06AA84204D12068016841F48051016040
:102F7000002243460121204600E00EE003F056F80F
:102F800008B1032060E72068C068A16B0880A06BCF
:102F9000801CA063E08F401EE087E08E0028CAD12D
:102FA000606800287ED1434600220121204603F0BC
:102FB0003DF810B1032047E70AE02068C068A16B24
:102FC0000880A06B801CA063E08F401EE08769E052
:102FD000206B411C216321680078C860E08E401E90
:102FE000E086E08EE8BBA06AA84204D120680168B0
:102FF00041F480510160434600220121204603F044
:1030000015F808B103201FE72068C068A16B08709D
:10301000E08F401EE08745E0434600220221204623
:1030200003F004F808B103200EE7206B411C216374
:1030300021680078C860E08E401E80B2E08638B912
:10304000A06AA84204D12068016841F4805101605F
:10305000434600220121204602F0E8FF10B1032080
:10306000F2E608E02068C168A06B421CA263017010
:10307000E08F401EE087E08E0028CDD1606888B9DF
:10308000434600220121204602F0D0FF08B1032070
:10309000DAE62068C168A06B421CA2630170E08F71
:1030A000401EE087A06AA84211D1434600220121B8
:1030B000204602F0BBFF28B1606D40F00200606561
:1030C0000320C1E62068C0680090BDF800004346B8
:1030D00001228021204602F0A9FF28B1606D40F056
:1030E000200060650320AFE684F851702068816895
:1030F000C1F30011A26AAA4211D181B1616D41F000
:1031000002016165016821F40051016020680168D5
:1031100041F40051016084F85060012094E684F885
:103120005060002090E64FF0E021042804D00869A8
:1031300020F0040008617047086940F0040008614D
:10314000704710B5401EB0F1807F01D3012010BD43
:103150004FF0E02460610F21601701F083FA002036
:10316000A06107202061002010BD704790F8390051
:10317000704738B5044621680868C0F30000CA6883
:1031800002F48072002807D032B1086848680090C5
:10319000E06B40F00100E0630868C0F340004A695A
:1031A00002F0010238B132B1086848680090E06B63
:1031B00040F00400E0630868C0F38002486900F052
:1031C00001003AB130B1086848680090E06B40F007
:1031D0000200E0630868C0F3C0004A6902F001021F
:1031E00038B132B1086848680090E06B40F00800E0
:1031F000E0630868C0F34010C96801F0200118B10D
:1032000011B1204603F04DFA20680168C1F3C011E6
:10321000C06800F0800019B110B1204603F092FBA5
:1032200020680168C1F38011C06800F0400019B146
:1032300010B1204603F020FAE06B002805D00120F1
:1032400084F839002046FFF790FF38BD70B504467A
:10325000002C04D094F83900002510B106E00120BC
:1032600070BD84F83850204600F020F8022084F821
:1032700039002068C16821F40051C160204603F084
:1032800069FA2068016921F490410161206841696F
:1032900021F02A0141612068C16841F40051C160F8
:1032A000E563012084F83900002070BD2DE9F04766
:1032B00086B0044637492068374D022607274FF06D
:1032C00000094FF4806888422CD1286840F0010042
:1032D0002860286800F0010000902F481430016831
:1032E00041F010010160006800F0100000906815C6
:1032F000019002960120039004960597DFF89CA0A8
:1033000001A95046FEF77AFBCDF8048001A950468A
:10331000FEF774FB002201212520FEF7CDFC2520BD
:10332000FEF7BEFC1E492068884230D11A48103092
:10333000016841F480210160006800F48020009061
:10334000286840F002002860286800F00200009021
:10335000CDF804800296CDF80C9004960597114D97
:1033600001A92846FEF74AFBE814019001A9284666
:10337000FEF744FB2068C16841F02001C1602720AE
:10338000FEF78EFC002211462720FEF795FC06B0C2
:10339000BDE8F087001001403038024000000240D4
:1033A000004800400004024090F83930012B03D05F
:1033B000122B01D00220704731B32AB390F8383075
:1033C000012B23D0012380F8383081628285C285A9
:1033D0000022C26390F83910122919D0222180F8F6
:1033E00039100168CB6843F48073CB6001684B6986
:1033F00043F001034B6180F838200068C16841F058
:103400002001C160002070470120704702207047F2
:10341000322180F83910E4E730B400681549884259
:103420000CD1154A5088010408D411464404097887
:103430004FF000030DD50A2902D0538030BC7047ED
:1034400040F4004050800E480C49006830BC0EF03B
:1034500065BC0D290AD0094DC0F30D042955401C47
:1034600080B25080FE28E9D95380E7E740F48040DD
:103470005080E3E700480040A0000020A01E00208C
:10348000300000202DE9F04104460D46984694F89E
:103490003900012804D0222802D00220BDE8F081A2
:1034A0009DB192B194F83800012810D0012684F81B
:1034B00038600027E76394F83900222809D01220E9
:1034C00084F83900A284E2842EE00120E6E702209D
:1034D000E4E7322084F83900F4E7401EE084A06875
:1034E000B0F5805F08D0434600228021204603F0DB
:1034F0005EFAA8B10320D1E743460022802120468E
:1035000003F055FA08B10320C8E728882168C0F302
:1035100008004860206908B16D1C05E0AD1C03E09F
:10352000216815F8010B4860E08C0028D5D143468E
:1035300000224021204603F03AFA08B10320ADE70B
:1035400094F83900322805D084F8396084F838704E
:103550000020A3E7222084F83900F7E77047000035
:103560002DE9FE4F04468BA005C8CDE901020027D6
:10357000B946002000908DF80410224601A90320CE
:1035800001F000FC10B16120BDE8FE8F94F801A0AD
:1035900004EB0A0010F8011C01F0800114F80A5035
:1035A0004678082E02D04FF0FF08EEE06120EBE7EE
:1035B00006EB051021308DF805003DB1012D13D02B
:1035C000022D24D0032D3BD06120DDE7A178701CB3
:1035D00008FA00F291438DF8061040F040008DF893
:1035E00007008DF8001049E0A2788DF80620E178F8
:1035F000701C08FA00F399438DF8071040F0400062
:103600008DF808008DF800208DF8011036E0A378C1
:103610008DF80630E2788DF807202179701C08FAC1
:1036200000FC21EA0C018DF8081040F040008DF8F4
:1036300009008DF800308DF801208DF802101DE092
:10364000A2788DF8062094F803C08DF807C023797E
:103650008DF808306179701C08FA00FB21EA0B0133
:103660008DF8091040F040008DF80A008DF8002018
:103670008DF801C08DF802308DF80310281DC0B2FE
:10368000224601A901F07EFB2078802801D061202C
:103690007AE76078221812F8013C03F08001802953
:1036A00002D1275C92F8019003F00F00C0F10800EE
:1036B000C2B2701C82425AD13DB1012D18D0022DE8
:1036C00026D0032D31D061205EE79DF8062008FA50
:1036D00000F08243A07802438DF80020E0788DF856
:1036E000010020798DF8020060798DF8030025E053
:1036F0009DF8072008FA00F08243A07802438DF875
:103700000120E0788DF8020020798DF8030015E0A3
:103710009DF8082008FA00F08243A07802438DF853
:103720000220E0788DF8030008E09DF8092008FAEF
:1037300000F08243A07802438DF80320802020709F
:1037400084F801A09DF80030A3709DF801C084F8B2
:1037500003C09DF8020020719DF80320627183EA86
:103760000C0350404340A37180290ED101E0612039
:103770000AE7BD4203D0E819C5B24E4605E0E81994
:10378000C5B206EB0900401CC6B280293FF410AF59
:103790000020F9E6002008000000000070B5054692
:1037A0001B4C93212846FFF7DBFE18BB194EA6F1F0
:1037B0000800F17804291FD0B5F8031081816979D8
:1037C0008173A9799322227070226270F278042AA0
:1037D00016D08822A2708289A4F80320807B6071B1
:1037E000A17128200823E0712A462146184601F0DD
:1037F000C9FA48B1612070BDD5F80210C160E0E798
:10380000C068C4F80200EBE7A878B073002070BD70
:103810005A3400206236002070B505461D4C9521B3
:103820002846FFF79DFE28BB1B4EA6F10800F17845
:10383000072921D0B5F80310A0F80F106979417459
:10384000A9799522227070226270F278072A18D026
:103850008822A270B0F80F20A4F80320407C607189
:10386000A17128200823E0712A462146184601F05C
:1038700089FA58B1612070BDD5F80210C0F80F1058
:10388000DEE7D0F80F00C4F80200E9E7A878B073CB
:10389000002070BD5A3400206236002070B5054605
:1038A000164C97212846FFF75BFE08BB1448D5F855
:1038B0000210C0F80F10AA799721217070230221FD
:1038C000637000F10806F3780A2B04D1D0F80F00DA
:1038D000C4F802000621481CC0B262542822411CD0
:1038E000CBB222542A462146184601F04BFA08B1C1
:1038F000612070BDA878B073002070BD5A340020DC
:103900005A36002070B51A4D2846FFF747FFC8B950
:10391000184CA07B400703D52846FFF77DFF88B9E8
:10392000A07B400703D52846FFF7B8FF50B9A07B1E
:10393000800609D500F0CAF80120E073284600F09F
:1039400041F908B1612070BD012000F033F80A4848
:1039500002210170A07B094A10F0600F05D080069B
:1039600001D504201070002070BD1170FBE700002D
:1039700058340020623600205303002054030020F6
:103980000B490878800908D001280BD0022803D100
:103990000A20C8700320887070470420C870012076
:1039A000887070470720C870022088707047000038
:1039B0006236002010B586B01EA106C9CDE90412FA
:1039C0001EA1096803911EA1096802911D4C1E49A0
:1039D0000978342901D3062100E004211B4A938889
:1039E000042B01D20423938012798DF811208DF8D5
:1039F000120000208DF81300491CC8B2234604AA07
:103A0000022101F091F980B903AB00223A21042090
:103A1000009401F0DDF940B90A48009002AB0122A0
:103A20006821042001F0D4F910B1612006B010BD66
:103A30000020FBE700000000030300005A04000020
:103A400001DF000058340020550300205E030020F1
:103A500010B586B017A003C8CDE9040117A000680F
:103A6000039017A000680290164C1748007834287D
:103A700001D3062000E00420401CC0B2234604AA63
:103A8000022101F051F980B903AB00223A21042050
:103A9000009401F09DF940B90A48009002AB012260
:103AA0006821042001F094F910B1612006B010BD26
:103AB0000020FBE700000000020200005A040000A2
:103AC00001DF0000583400205503002010B586B0F7
:103AD0001CA003C8CDE904011CA0006803901CA031
:103AE000006802901B4C1C480078342801D3062043
:103AF00000E0042004218DF8111000218DF812102F
:103B00000C218DF81310401CC0B2234604AA0221D8
:103B100001F00AF980B903AB00223A210420009495
:103B200001F056F940B90B48009002AB0122682120
:103B3000042001F04DF910B1612006B010BD002045
:103B4000FBE7000000000000030300005A0400002F
:103B500001DF0000583400205503002010B500F0AC
:103B60000DF8FFF775FF08B1612010BD0249012073
:103B70000870002010BD00006403002005480021EB
:103B80000181C1600161818208308170C170C1739F
:103B9000017470475A36002010B5084C204600F0DA
:103BA00041F820B92146042001F012F808B1612043
:103BB00010BD034901200874002010BD58340020B6
:103BC0006236002038B5044614A0006800902246F2
:103BD0006946032001F0D6F848B92146042000F0D8
:103BE000F7FF20B92146022000F0C6FF08B161208E
:103BF00038BDE07800F00F00FDF742FE084948802C
:103C0000E078820608D5C00603D56079000988806F
:103C100002E0207900098880002038BDE08028007B
:103C20005E03002038B5044609A0006800902246D3
:103C30006946022001F0A6F808B1612038BD0548A8
:103C4000618801810830FFF79BFE002038BD00002D
:103C5000260700005A360020F0B500230A2530263A
:103C60003727002412E0B5EB107F04D906EB107C57
:103C700001F813C003E007EB107C01F813C000014A
:103C800001EB430C8CF801405B1CDBB29342EAD39E
:103C9000F0BD05280ED2DFE800F0030507090B0090
:103CA00000207047002070470020704700207047B8
:103CB000002070472220704770B52A4C0221204610
:103CC000FDF78CFF284D012817D004212046FDF771
:103CD00085FF012811D080212846FDF77FFF0128AC
:103CE0000BD001212046FDF779FF012805D00221E4
:103CF0002046FDF773FF20B331E0502005F02CFD86
:103D000002212046FDF76AFF012812D00421204637
:103D1000FDF764FF01280ED080212846FDF75EFFE5
:103D200001280AD001212046FDF758FF012806D0BE
:103D300015E0012070BD022070BD032070BD04207D
:103D400070BD04212046FDF749FF40B98021284677
:103D5000FDF744FF18B901212046FDF73FFF002081
:103D600070BD0000000402400010024010B586B093
:103D700000212448026842F004020260026802F056
:103D800004020092026842F001020260026802F03E
:103D900001020092026842F002020260026802F030
:103DA00002020092026842F010020260026802F011
:103DB00010020092026842F008020260006800F0FF
:103DC000080000902020019002910120039001A999
:103DD0000D48FDF713FE0220019003900B4C01A942
:103DE0002046FDF70BFE0421019101A92046FDF7B5
:103DF00005FE8020019001A90548FDF7FFFD06B0F2
:103E000010BD0000303802400008024000040240AB
:103E10000010024010B51EA00DF010FE00F032FCA4
:103E20001EA20C21202002F03DFA1FA22421102006
:103E300002F038FA00F096FD4FF0E0200021016119
:103E40008161FDF76BFF01210846FDF7B9FF0823EB
:103E5000022219214FF4C07002F0CAFA00F012FCDD
:103E6000002115A2084602F01DFA17A21021002019
:103E700002F018FA18A22021002002F013FAFCF731
:103E800001FF00F06FFDBDE8104016A00DF0D6BD9B
:103E9000BDF8C8EBB5CDB9A6BAC40A00CBAFC3DF35
:103EA000C4A3CABD00000000B0B4B7B5BBD8BCFC09
:103EB000CDCBB3F600000000CCFDD5EFC6F7D0B4F3
:103EC000BFA8B9A4D7B00000D0B4C8EBB7B6CEA78E
:103ED00020317E3433000000B5B1C7B0CAE4C8EB6E
:103EE0003A000000CDCBB3F6B5CDB9A6BAC40A00EE
:103EF00000B587B01548016841F080510160006845
:103F000000F08050019011481038016841F0020122
:103F10000160006800F002000190012002900C484E
:103F2000039002200490059002A90A48FDF766FD5F
:103F30000620FDF79FFE002211460620FDF7BCFE7D
:103F40000620FDF7ADFE07B000BD0000403802407E
:103F5000000011100004024070B50A48002211460A
:103F600000680DF061FE084C002548B12078401C27
:103F7000C0B22070122802D1FFF74CFF257070BD2F
:103F8000257070BD400000209000002070B50546EF
:103F90000E490F4C0A7B002A07D1896829B1617844
:103FA00019B901212846FDF7FAF881212846FDF7C5
:103FB000F6F86078022807D12846BDE870401F2334
:103FC000024A0121FDF7C7B870BD0000A8240020F7
:103FD0001801002070B50646244C04F120006168E9
:103FE0004160A16881600121304602F074FF204DDC
:103FF0001F280CD11F492068884208D11E48617BC8
:104000000078814203D8A27B0AB1102A0BD9607BC9
:104010002022052101F082F9022068703046BDE8B7
:104020007040FFF7B3BF114A30460F3200F058FF1F
:10403000002804DA3046BDE87040FFF7A7BF2978B2
:10404000022911D001290FD003290DD06A882AB185
:1040500030466968BDE8704000F0C0B83046BDE841
:104060007040002100F09CB870BD0000A824002022
:1040700018010020555342434C01002010B5094C53
:104080006278022A08D009060BD5012A09D0BDE8BA
:104090001040012100F084B88121FDF780F8002054
:1040A000607010BD1801002010B504460E4800785D
:1040B000022809D0032801D0042814D12046BDE8E5
:1040C0001040002100F06CB8084800F10F02417B5D
:1040D000204600F005FF002805DA2046BDE8104024
:1040E000012100F05DB810BD18010020A8240020B7
:1040F00010B504460D480078002810D0012813D1CF
:104100000B4800F10F02417B204600F0E9FE002839
:104110000ADA2046BDE81040012100F041B82046EF
:10412000BDE81040FFF756BF10BD00001801002089
:10413000A8240020014900200870704718010020C1
:1041400010B504460C4A0021117051700B480068EC
:1041500001680020884701212046FCF7D2FF812119
:104160002046FCF7CEFF20461F23BDE81040044A3E
:104170000121FCF7F0BF0000180100200002002020
:10418000A8240020044900220A7001224A701F233B
:10419000024A0121FCF7DFBF18010020A8240020FB
:1041A00010B504460B4A0A4B136011730A4A0021EA
:1041B00011700D23074A81212046FDF70CF8054AAE
:1041C00020461F23203ABDE810400121FCF7C3BF61
:1041D00055534253C82400201801002030B4134620
:1041E0000A4A92689A4200D31A4693B2074A20328A
:1041F0009468E41A946000241473054C042222701D
:104200000A4630BC8121FCF7E6BF0000A82400204C
:104210001801002010B5002201211BA00DF0DEFCCA
:104220001E4CA062002201211DA00DF0D7FCA06150
:10423000002201211EA00DF0D1FCE061002201212D
:1042400021A00DF0CBFC20620022012122A00DF064
:10425000C5FC60620022012124A00DF0BFFCE062D9
:104260000022012124A00DF0B9FC206300220121CD
:1042700026A00DF0B3FC60630022012127A00DF001
:10428000ADFCA06310BD00004E46435461675F4320
:104290007573746F6D49445F6D62000014000020F7
:1042A0004E46435F54616749445F6D620000000001
:1042B00042756C65546F6F74685F5472616E73669B
:1042C00065725F6D620000004E46435F53656E6429
:1042D0004D41435F6D6200005468655F41756964DC
:1042E0006F5F4E616D655F6D620000004C4F575F00
:1042F0005057525F6D62000053746172745F506C6E
:104300006179696E675F6D620000000053746F70C1
:104310005F506C6179696E675F6D62005772697496
:10432000655F436172645F6D6200000038B51546D9
:104330000B4C6288002A10D10A4AD378602808D131
:104340000091121D294607F0A1FE80B2608000286E
:1043500005D1054807F00CFF60800020608038BD63
:104360006803002062360020443322117FB53023D9
:104370008DF80C308DF80D00152323800525084E8F
:104380000020CDE900650A460290022103A808F04A
:1043900007FA311F488088882080488804B070BDA3
:1043A0006C03002070B5C8B034A003C8CDE9060185
:1043B0000626142101A8FCF728F808F0D1F83246A7
:1043C00006A96020FFF7B2FF04462F4800222D49BE
:1043D00000680DF029FC2B4D103D29692BA00DF034
:1043E0002DFB286907F0BEFA05F10C01C870C978E9
:1043F00029A00DF023FB2CB905F10C01304600F08B
:1044000073F804465CB128A00DF018FB29A23021F6
:10441000002001F047FF00F0A5FA4CB10DE028A004
:104420000DF00CFB29A23021002001F03BFFF2E748
:1044300008A93046FFF79AFF04460020264908AA3B
:10444000135C0B54401C0428FADB0878242807D19D
:104450004878272804D121481F4900680DF05EFCE8
:104460001F480068017F806907F030FA01461D4847
:1044700000680DF053FC48B0204670BDFFFFFFFF01
:10448000FFFF0000780300204C0000206E756D3D9A
:1044900025780D0A000000007478446174615B3374
:1044A0005D3D25780D0A0000D0B4C8EBCAA7B0DC8A
:1044B0000D0A0000D0B4C8EBCAA7B0DC00000000B1
:1044C000D0B4C8EBB3C9B9A60D0A0000D0B4C8EB8C
:1044D000B3C9B9A600000000F23700203C0000205C
:1044E000380200202C0000202DE9FF410F46A021BA
:1044F0008DF80C108DF80D00DFF8448001200A269D
:10450000CDE9008603460290A8F10402022103A827
:1045100008F046F9A8F1040482B2628062B9002072
:10452000CDE9008602902B8822461021384608F0FB
:1045300037F96080A0882880608804B0BDE8F081E9
:104540006C0300202DE9F05F81460C46A046C2EBCB
:1045500082104FEAC00B00274FF6FF7A16480BEB8C
:104560000701465C0025300605D501222146484654
:1045700000F0ECF804E000222146484600F0E6F89E
:104580000AEA4606641CE4B2A4EB08003F280CD0FB
:104590006D1CADB2082DE6D37F1CBFB2B7F5FC7F12
:1045A000DCD3BDE8F05F00F0DDB908F0FF0409F1ED
:1045B000010909F0FF09EFE74E55020812A004F0C7
:1045C00071F800F05FF8002114A2084601F06AFEBD
:1045D00016A21021002001F065FE18A22021002063
:1045E00001F060FE00F0BEF905F054FB10B916A012
:1045F00007F0DEFCFCF7D4FCFCF7FCFA05F05CF9F4
:1046000001200DF0EEFEF7E74E46435F5472616EF7
:10461000736665725F5461736B0A0000CCFDD5EF61
:10462000C6F7D0B4BFA8B9A4D7B00000D0B4C8EBC7
:10463000B7B6CEA720317E3433000000B5B1C7B085
:10464000CAE4C8EB3A000000496E697469616C699C
:104650007A6174696F6E206661696C65642E2E0DD7
:104660000A0000000907090E002806DA00F00F0012
:1046700000F1E02080F8141D704700F1E02080F880
:104680000014704730B40021084B0022002003EBD7
:10469000C0046254401CC0B28028F8D3491CC9B27F
:1046A0000829F3D330BC00F05DB9000034200020AD
:1046B0002DE9FE4F00250026171AA3EB01088146BD
:1046C0008A46681E002F03DD4FF00101019107E0CB
:1046D00003D14FF00001019102E00190C7F1000702
:1046E000B8F1000F03DD4FF00100009007E003D1A7
:1046F0004FF00000009002E00090C8F1000847452C
:1047000001DD3C4600E044464FF0000B601C029087
:1047100016E00AF0FF0109F0FF000C9A00F016F80D
:104720003D444644A54202DD2D1B01988144A6422A
:1047300002DD361B009882440BF1010B1FFA8BFB44
:1047400002988345E5DDBDE8FE8F000010B57F28A7
:1047500013D83F2911D80723A3EBD103DBB201F013
:104760000701C1F107040121A140C9B2054C04EBC6
:10477000C0001AB1C25C0A43C25410BDC25C8A4375
:10478000C25410BD342000202DE9F84180460E4669
:1047900015461F46012433462A46314640460094BA
:1047A000FFF786FF3B464246314640460094FFF7FE
:1047B0007FFF3B462A46394640460094FFF778FF84
:1047C0003B462A46314628460094FFF771FFBDE874
:1047D000F8812DE9F04305460F4690461E46DDF868
:1047E0001C900CE03C4606E04A4621462846FFF76E
:1047F000ADFF641CE4B2B442F6D96D1CEDB2454580
:10480000F0D9BDE8F083000070B586B000265048AE
:10481000016841F001010160016801F001010091AE
:10482000016841F008010160006800F00800009094
:104830004FF400400190012402940394022004905C
:1048400001A94448FDF7DAF811200190424D01A971
:104850002846FDF7D3F82A21019101A92846FDF742
:10486000CDF8002220212846FDF7BFF93B4804601F
:104870003B4D2C602C616C60EE60642004F06CFF9A
:10488000EC600021AE2000F037F90021D52000F0C7
:1048900033F90021502000F02FF90021A82000F06A
:1048A0002BF900213F2000F027F90021D32000F050
:1048B00023F90021084600F01FF90021402000F0F4
:1048C0001BF900218D2000F017F90021142000F0C1
:1048D00013F90021202000F00FF90021022000F040
:1048E0000BF90021A12000F007F90021C02000F001
:1048F00003F90021DA2000F0FFF80021122000F077
:10490000FBF80021812000F0F7F80021EF2000F0F3
:10491000F3F80021D92000F0EFF80021F12000F099
:10492000EBF80021DB2000F0E7F80021302000F058
:10493000E3F80021A42000F0DFF80021A62000F019
:10494000DBF80021AF2000F0D7F806B070BD000002
:104950003038024000000240000C0240BC024042DD
:104960008082414270B50CF0A9FD0025104E05F182
:10497000B000C0B2002100F0BFF80021084600F0EE
:10498000BBF80021102000F0B7F8002406EBC400AB
:104990000121405D00F0B0F8641CE4B2802CF5D336
:1049A0006D1CEDB2082DE2D3BDE870400CF0ECBDFB
:1049B000342000202DE9F84F83460E461F46B246AC
:1049C000780701D0012000E0002000EBD700790833
:1049D0004843C0B20090203A02F0FF09002541E0B0
:1049E0000C2F13D0102F18D0182F3ED1204909EBCF
:1049F000C90001EB8000445D4FF00008200611D58E
:104A0000314658460A9AFFF7A1FE12E0194909EB10
:104A1000490001EB8000445DEEE7174800EB091008
:104A2000445DE9E70A9890B1002231465846FFF705
:104A30008DFE6006040E761CF6B2A6EB0A00B842A4
:104A400007D156460BF1010B0BF0FF0B08E00122DA
:104A5000EBE708F1010808F0FF08B8F1080FCDD323
:104A60006D1CEDB200988542BAD3BDE8F88F000006
:104A7000F24702088E3D0208024202082DE9FF4F6C
:104A800081B08046DDE90EB992461D46002600241D
:104A90004FEA5B071FE0281B401EC1B20A2007F047
:104AA00056FFBAFBF0F00A21B0FBF1F201FB120055
:104AB00026B9691E8C4201DA90B101263030C2B2AB
:104AC00007FB0480C0B25B46CDF800900299FFF767
:104AD00071FF641CE4B2AC42DDD305B0BDE8F08FD9
:104AE00007FB0480C0B25B462022CDF800900299FB
:104AF000FFF760FFEDE7000070B50F4AC2F88412BF
:104B00000025C2F8905200210C4B0124C2F88052BB
:104B1000060602D5C3F8BC4201E0C3F8BC52C2F895
:104B200080424006000E491CC9B20829EED3C2F8E3
:104B30009042C2F8844270BD008041420000404271
:104B4000014802F0E5BA00006404002008B504A2A0
:104B5000126800920146684605F01AFF002008BD61
:104B6000550000001FB5002003906B4603AA0021EA
:104B7000022000F0D9F81FBD4A78012807D002288A
:104B80000DD0032814D004281AD0012070478818AB
:104B90004078800701D52120704700207047881891
:104BA00010F8010C800601D52120704700207047C5
:104BB00088184078800701D5212070470020704771
:104BC00088184078800701D5212070470020704761
:104BD0000A78212A0BD008285ED00ADC012816D0DA
:104BE000022819D0042824D0072808D14BE023201C
:104BF0007047092859D00A285CD0552801D00120D7
:104C00007047552A01D021207047002070470AB113
:104C100021207047002070472AB1822A05D0832ABC
:104C200005D02120704700207047212070472120A7
:104C30007047803A112A24D2DFE802F009232323A7
:104C4000232311131517191B1D1F21230F0048784B
:104C500008B10020704721207047002070472120B4
:104C60007047212070472120704721207047212064
:104C70007047212070472120704721207047212054
:104C80007047212070471AB1822A03D02120704733
:104C900000207047212070471AB1822A03D02120BA
:104CA000704700207047212070470AB121207047CB
:104CB00000207047212070472DE9F0410024184E54
:104CC0003078012801D105F0D7FD164D4FF440771B
:104CD0001448FFF73BFF2878552804D03078012886
:104CE00004D030B110E00020BDE8F08105F0C4FD33
:104CF0000AE00C48FFF72AFF287855280ED02046F6
:104D0000641CA4B2B842F4D32878552804D02046B5
:104D1000641CA4B20528DBD32620E5E70020E3E7E6
:104D20005803002058340020FEB504460F461646AE
:104D30001D461348FFF70AFF11480078552801D097
:104D4000FFF7BAFF21202870002068703846FEF770
:104D5000A0FF40B208B12220FEBD02208DF8000065
:104D60008DF801408DF80270621E31460DF103008E
:104D7000FBF724FB2946684605F00AFE0020FEBD2D
:104D80005834002010B5C2B00B46144621212170C2
:104D90000021617004218DF804108DF80500024691
:104DA00019460DF10600FBF709FB214601A805F0A5
:104DB000EFFD21460420FFF70BFF38B1207887284C
:104DC00002D0212042B010BD2820FBE70020F9E7E7
:104DD00030B5C1B0449D09248DF800408DF8010024
:104DE0008DF802108DF80320821E194601A8FBF7EA
:104DF000E5FA2946684605F0CBFD41B0002030BDFC
:104E0000012251030148FCF7F0BE000000100240EF
:104E10000148FDF74BBB00004424002000B51144BD
:104E2000064A52F82020914206D92122052100F09D
:104E300075FA4FF0FF3000BD002000BDF8240020BF
:104E40004A78D20702D00E4A07200CE00D4A00EB48
:104E5000C0001268D26902EB80021079401D097906
:104E6000814200D80846084908800849096803E0DB
:104E7000401E80B2135C0B540028F9D1704700002B
:104E8000765B0208000200201A0100201C010020AD
:104E90000820064908800749054A096803E0401EC2
:104EA00080B2135C0B540028F9D170471A0100201E
:104EB000855B02081C01002008200649088007497C
:104EC000054A096803E0401E80B2135C0B540028B9
:104ED000F9D170471A0100207D5B02081C010020F7
:104EE000034610B5084611462B4AD3600A78232A98
:104EF0003DD00DDC1A2A32D005DCE2B1032A1ED0E7
:104F0000122A11D11FE01B2A21D01E2A0CD122E027
:104F10002A2A38D004DC252A2DD0282A04D12EE0D4
:104F20002F2A34D05A2A1ED02022052100F0F6F96B
:104F30004FF0FF3010BDBDE8104000F00BBABDE8E7
:104F4000104000F0B7B9BDE81040FFF779BFBDE8E9
:104F5000104000F0F9B9BDE8104000F0F5B9BDE827
:104F60001040FFF7A9BFBDE81040FFF791BFBDE8B3
:104F7000104000F065B9BDE8104000F01FB9BDE871
:104F8000104000F0ADB8BDE8104000F037BABDE801
:104F9000104000F005BA0000780100202DE9F04132
:104FA0000646214D4FF45040AC68844200D304467D
:104FB0006A680027B4FBF2F01FFA80F8D5E9040113
:104FC0003B46FBF7ABF9024618484346DFF86080E2
:104FD0000068D8F80010D0F810C03046E04700282C
:104FE00007DA11220421304600F098F9781EBDE856
:104FF000F08123468121D8F80020E868FCF7EBF81F
:10500000D5E9041009197841C5E90410A868001B06
:10501000A86008498A68121B8A6010B906490320F3
:1050200008700020E3E70000780100200002002063
:105030001C010020C8240020180100202DE9F047A1
:105040008146234D4FF45046AC68B44200D33446F9
:105050006A684FF00008B4FBF2F087B2D5E90401AA
:105060004346FBF75BF902461A483B461A4F006875
:105070003968D0F814C04846E047002808DA03220F
:105080000421484600F04AF94FF0FF30BDE8F087B0
:10509000D5E90410091940EB0800C5E90410A86817
:1050A000001BA8600D498A68121B8A6050B1B0428B
:1050B00000D3304683B201213A68E868FCF74BF828
:1050C0000020E3E70021E868FFF76AF8F8E700004E
:1050D00078010020000200201C010020C8240020CC
:1050E0002DE9F04780460C46DFF8BC9099F80000A7
:1050F000002850D12D4E4FF0FF37307B000607D4EB
:10510000707B2022052100F009F93846BDE8F087C0
:105110002748006881684046884730B13A2202211A
:10512000404600F0FBF83846F0E76079A178227934
:1051300040EA0161E0781F4D000440EA022001438B
:10514000C817C5E90410207AE27940EA0222AA6071
:105150004046FFF763FE002801DA3846D6E7022012
:1051600089F80000D5E9041268680023A1FB004C0F
:1051700002FB00C201FB0321C5E90441A9684143C8
:10518000A960B068884206D0707B2022052100F01B
:10519000C5F83846BAE708494FF450400880404601
:1051A000BDE8F047FFF7FABE18010020A824002050
:1051B00000020020780100201A01002070B504468A
:1051C0001B481A4D1B4A006805EB840143682046C2
:1051D000984738B13A220221204600F09FF84FF05C
:1051E000FF3070BD55F82400401E020E12480168C1
:1051F0000A7055F82400401E000C487035F8240051
:10520000401E000A887015F82400401EC870094826
:10521000001F4068020E0A71020C4A71020A8A716C
:10522000C871064908200880002070BDF8240020BD
:10523000000200207C0100201C0100201A01002037
:105240007CB505460021184C002322685354491CA4
:1052500089B20C29FAD3154801AA69460068436847
:105260002846984738B13A220221284600F056F8DD
:105270004FF0FF307CBD20680821C1700099491EA5
:105280000A0E02710A0C42710A0A8271C17102216E
:10529000017201990A0C42720A0A8272C1720449AF
:1052A0000C20088000207CBD1C0100200002002092
:1052B0001A01002070B50020144A0023126813540C
:1052C000401CC0B21228FAD3702010700C20D0718C
:1052D0000F4D28786C78A0420FD00E4C14F8306037
:1052E000967004EBC0046679167324795473401CDD
:1052F000C0B22870042800D12B70074A12201080F9
:105300000879122800D81080002070BD1C010020F0
:1053100078010020D82400201A01002010B5094C83
:10532000074B607803EBC003197011025960401CF1
:10533000C0B26070042801D10020607010BD000070
:10534000D8240020780100200149002008807047FF
:105350001A01002070B505460E484FF0FF348168F1
:10536000002906D0407B20220521FFF7D7FF2046E9
:1053700070BD0948006881682846884730B13A22E4
:1053800002212846FFF7CAFF204670BD03490020CE
:10539000088070BDA8240020000200201A0100200F
:1053A00070B54A784FF0FF35920705D524220521C4
:1053B000FFF7B4FF284670BD4A798B780C7942EA32
:1053C0000363CA78120442EA04220A4C1343DA1730
:1053D000C4E904320A7AC97942EA0122A260194674
:1053E000FFF71CFD002801DA284670BD02490020A5
:1053F000088070BD780100201A0100202DE9F047D7
:1054000081460C46394F3878002804D04846BDE81C
:10541000F047FFF713BE364E4FF0FF38307B0006E3
:1054200007D5707B20220521FFF778FF4046BDE8B5
:10543000F087304D286881684846884730B13A2265
:1054400002214846FFF76AFF4046F0E72868C16836
:105450004846884730B1272202214846FFF75EFFC1
:105460004046E4E76079A178234D40EA0161E078A5
:105470000204207942EA00200143C817C5E904105C
:10548000207AE27940EA0222AA604846FFF7C6FC89
:10549000002801DA4046CAE7D5E90413686800220B
:1054A000A1FB004C03FB00C301FB0231C5E9044131
:1054B000A9684143A960B068884206D0707B202269
:1054C0000521FFF72BFF4046B1E7012038704FF46C
:1054D0005040814200D3014608488BB20121026846
:1054E000E868FBF738FE0020A1E700001801002063
:1054F000A824002000020020780100201C010020C8
:105500000A6842624A688262D1E902231A43D1E9F9
:1055100004310B431A43C16A21F0F7011143C16200
:10552000002070470069C0B27047006800F00300B7
:105530007047000008B503490844009000980068CF
:1055400008BD0000142C01400FB4DDE90112114325
:10555000DDE903231A431143059A1143069A1143C7
:10556000426847F6FF639A430A434260002004B052
:1055700070470321016000207047D0F88000704719
:105580000A688260D1E901231A43D1E903310B4350
:105590001A43C1686FF30B011143C16000207047CB
:1055A0000968C0F8801000207047024600204FF4C0
:1055B000803113685A6BC2F3C01203E05A6BC2F316
:1055C000C012491E09B1002AF8D019B140F2FF51AA
:1055D000996370470320704770B504460E46002556
:1055E0002068426B12F0450FFBD0416B490704D590
:1055F000032104228263084670BD416BC90703D0B2
:1056000001218163084670BDFFF78CFFB04201D0D5
:10561000102070BD216840F2FF5088630020FFF722
:1056200089FF2949084201D1284670BD002801DAC6
:105630001C2070BD410001D5092070BD810001D53D
:105640000A2070BDC10001D50B2070BD010101D53C
:105650000C2070BD410101D50D2070BDC10101D5E7
:105660000E2070BD010201D50F2070BD410201D591
:10567000102070BD810201D5112070BDC10201D57D
:10568000122070BD010301D5132070BD410301D567
:10569000142070BD810301D5152070BDC10301D553
:1056A000162070BD010401D5172070BD410401D53D
:1056B000182070BD810401D5192070BD000701D5E7
:1056C0001A2070BD284670BD08E0FFFD014600208D
:1056D00009684A6B12F0450FFBD04A6B520703D59D
:1056E000032004228A6370474A6BD20702D001204C
:1056F0008863704740F2FF528A637047014600207A
:1057000009684A6B12F0450FFBD04A6B520703D56C
:10571000032004228A63704740F2FF528A63704775
:105720002DE9F04104460F46154600262068436BDC
:1057300013F0450FFBD0416B490705D50321042227
:1057400082630846BDE8F081416BC90703D001219F
:1057500081630846F6E7FFF7E5FEB84201D0102066
:10576000F0E7216840F2FF5088630020FFF7E2FE77
:1057700010F4604F03D0810405D51320E2E7000C3C
:1057800028803046DEE7410401D51020DAE7000426
:1057900001D50F20D6E73046D4E7024629204FF442
:1057A00080311268536B13F0450307D0012305E0E5
:1057B000536B13F0450300D00123491E0BB9002998
:1057C000F6D1536BC3F3800301B11BB10320042155
:1057D00091637047516B4906FBD5002040219163CE
:1057E00070472DE9F04F8DB004460F460025002686
:1057F000009601964FF00808CDF8208010200990FF
:1058000040200A900B9600010C9008A92068FFF731
:10581000B7FE10212046FFF7DFFE00282DD1A08C17
:10582000000408903720099008A92068FFF7A8FE17
:1058300037212046FFF7D0FE00281ED1401E0290DF
:10584000CDF80C80302004904FF00209CDF8149070
:1058500006960120079002A92068FFF751FE0896DE
:105860003320099008A92068FFF78AFE33212046DB
:10587000FFF7B2FE0646300002D00DB0BDE8F08F53
:10588000EA4640F22A6B07E0416B890204D5FFF734
:1058900074FE4AF825006D1C2068416B11EA0B0F5D
:1058A000F2D02168496B090703D5C0F8388004207D
:1058B000E3E7416B890703D5C0F838904846DCE739
:1058C000416B890603D5202181630620D5E7416B12
:1058D000890504D54FF4007181630720CDE740F2BC
:1058E000FF51816300980099000601F47F4140EA6E
:1058F0000120009901F47F0140EA1120009940EA5B
:105900001160786001980199000601F47F4140EA36
:105910000120019901F47F0140EA1120019940EA38
:10592000116038603046A8E710B50E480C49016098
:10593000002141608160C16001614161816100F1CC
:105940006001FCF71CFF08B1012010BD4FF400619D
:105950000448FDF77DF808B1022010BD002010BDFD
:10596000002C0140E81B002070B586B004460025DD
:10597000012000902068FFF7D8FDB8B1206AC0264A
:10598000042825D000200190022102910396049062
:105990004802059001A92068FFF7F2FD2046FFF7B5
:1059A00095FE054625B1284606B070BD2520FBE7CB
:1059B0000020FFF7BFFDA0630420FFF7BBFDE063FD
:1059C0000820FFF7B7FD20640C20FFF7B3FD6064EB
:1059D000206A28B1012803D0062801D0022810D15E
:1059E000032002904020039001A92068FFF7C8FD22
:1059F0006A4603212046FFF793FE05460DB128466F
:105A0000D2E7206A042822D0BDF8000060620004BA
:105A1000019009200290039601A92068FFF7B0FDCC
:105A20002046FFF753FE05460DB12846BCE700208F
:105A3000FFF780FDA0620420FFF77CFDE0620820F4
:105A4000FFF778FD20630C20FFF774FD60632846A4
:105A5000AAE7000070B586B004460D460026002077
:105A60000090A18C090401910D2102914021039124
:105A700004900801059001A92068FFF781FD2068C6
:105A8000426B12F0450FFBD0416B490705D503214E
:105A900004228263084606B070BD416BC90703D07B
:105AA000012181630846F6E7FFF73CFD0D2801D090
:105AB0001020F0E7216840F2FF5088630020FFF7D4
:105AC00039FD00900098C0F34320287033490098B6
:105AD000084201D13046DEE70098002801DA1C2098
